{
  "address": "0x8e3DaA84922C43EC2792486Af7b518A7C80ee327",
  "abi": [
    {
      "anonymous": false,
      "inputs": [
        {
          "indexed": true,
          "internalType": "address",
          "name": "owner",
          "type": "address"
        },
        {
          "indexed": true,
          "internalType": "address",
          "name": "approved",
          "type": "address"
        },
        {
          "indexed": true,
          "internalType": "uint256",
          "name": "tokenId",
          "type": "uint256"
        }
      ],
      "name": "Approval",
      "type": "event"
    },
    {
      "anonymous": false,
      "inputs": [
        {
          "indexed": true,
          "internalType": "address",
          "name": "owner",
          "type": "address"
        },
        {
          "indexed": true,
          "internalType": "address",
          "name": "operator",
          "type": "address"
        },
        {
          "indexed": false,
          "internalType": "bool",
          "name": "approved",
          "type": "bool"
        }
      ],
      "name": "ApprovalForAll",
      "type": "event"
    },
    {
      "anonymous": false,
      "inputs": [
        {
          "indexed": false,
          "internalType": "uint256",
          "name": "_fromTokenId",
          "type": "uint256"
        },
        {
          "indexed": false,
          "internalType": "uint256",
          "name": "_toTokenId",
          "type": "uint256"
        }
      ],
      "name": "BatchMetadataUpdate",
      "type": "event"
    },
    {
      "anonymous": false,
      "inputs": [
        {
          "indexed": false,
          "internalType": "uint8",
          "name": "version",
          "type": "uint8"
        }
      ],
      "name": "Initialized",
      "type": "event"
    },
    {
      "anonymous": false,
      "inputs": [
        {
          "indexed": false,
          "internalType": "uint256",
          "name": "_tokenId",
          "type": "uint256"
        }
      ],
      "name": "MetadataUpdate",
      "type": "event"
    },
    {
      "anonymous": false,
      "inputs": [
        {
          "indexed": true,
          "internalType": "address",
          "name": "previousOwner",
          "type": "address"
        },
        {
          "indexed": true,
          "internalType": "address",
          "name": "newOwner",
          "type": "address"
        }
      ],
      "name": "OwnershipTransferred",
      "type": "event"
    },
    {
      "anonymous": false,
      "inputs": [
        {
          "indexed": true,
          "internalType": "address",
          "name": "from",
          "type": "address"
        },
        {
          "indexed": true,
          "internalType": "address",
          "name": "to",
          "type": "address"
        },
        {
          "indexed": true,
          "internalType": "uint256",
          "name": "tokenId",
          "type": "uint256"
        }
      ],
      "name": "Transfer",
      "type": "event"
    },
    {
      "inputs": [
        {
          "internalType": "address",
          "name": "to",
          "type": "address"
        },
        {
          "internalType": "uint256",
          "name": "tokenId",
          "type": "uint256"
        }
      ],
      "name": "approve",
      "outputs": [],
      "stateMutability": "nonpayable",
      "type": "function"
    },
    {
      "inputs": [
        {
          "internalType": "address",
          "name": "owner",
          "type": "address"
        }
      ],
      "name": "balanceOf",
      "outputs": [
        {
          "internalType": "uint256",
          "name": "",
          "type": "uint256"
        }
      ],
      "stateMutability": "view",
      "type": "function"
    },
    {
      "inputs": [],
      "name": "freeEnd",
      "outputs": [
        {
          "internalType": "uint64",
          "name": "",
          "type": "uint64"
        }
      ],
      "stateMutability": "view",
      "type": "function"
    },
    {
      "inputs": [],
      "name": "freeSold",
      "outputs": [
        {
          "internalType": "uint32",
          "name": "",
          "type": "uint32"
        }
      ],
      "stateMutability": "view",
      "type": "function"
    },
    {
      "inputs": [],
      "name": "freeStart",
      "outputs": [
        {
          "internalType": "uint64",
          "name": "",
          "type": "uint64"
        }
      ],
      "stateMutability": "view",
      "type": "function"
    },
    {
      "inputs": [],
      "name": "fundingEnd",
      "outputs": [
        {
          "internalType": "uint64",
          "name": "",
          "type": "uint64"
        }
      ],
      "stateMutability": "view",
      "type": "function"
    },
    {
      "inputs": [],
      "name": "fundingStart",
      "outputs": [
        {
          "internalType": "uint64",
          "name": "",
          "type": "uint64"
        }
      ],
      "stateMutability": "view",
      "type": "function"
    },
    {
      "inputs": [
        {
          "internalType": "uint256",
          "name": "tokenId",
          "type": "uint256"
        }
      ],
      "name": "getApproved",
      "outputs": [
        {
          "internalType": "address",
          "name": "",
          "type": "address"
        }
      ],
      "stateMutability": "view",
      "type": "function"
    },
    {
      "inputs": [],
      "name": "getPhase",
      "outputs": [
        {
          "internalType": "enum Mossy.Phase",
          "name": "",
          "type": "uint8"
        }
      ],
      "stateMutability": "view",
      "type": "function"
    },
    {
      "inputs": [
        {
          "internalType": "address",
          "name": "admin",
          "type": "address"
        },
        {
          "internalType": "uint64",
          "name": "_freeStart",
          "type": "uint64"
        },
        {
          "internalType": "uint64",
          "name": "_freeEnd",
          "type": "uint64"
        },
        {
          "internalType": "uint64",
          "name": "_fundingStart",
          "type": "uint64"
        },
        {
          "internalType": "uint64",
          "name": "_fundingEnd",
          "type": "uint64"
        }
      ],
      "name": "initialize",
      "outputs": [],
      "stateMutability": "nonpayable",
      "type": "function"
    },
    {
      "inputs": [
        {
          "internalType": "address",
          "name": "owner",
          "type": "address"
        },
        {
          "internalType": "address",
          "name": "operator",
          "type": "address"
        }
      ],
      "name": "isApprovedForAll",
      "outputs": [
        {
          "internalType": "bool",
          "name": "",
          "type": "bool"
        }
      ],
      "stateMutability": "view",
      "type": "function"
    },
    {
      "inputs": [],
      "name": "maxFree",
      "outputs": [
        {
          "internalType": "uint32",
          "name": "",
          "type": "uint32"
        }
      ],
      "stateMutability": "view",
      "type": "function"
    },
    {
      "inputs": [],
      "name": "maxPhaseOne",
      "outputs": [
        {
          "internalType": "uint32",
          "name": "",
          "type": "uint32"
        }
      ],
      "stateMutability": "view",
      "type": "function"
    },
    {
      "inputs": [],
      "name": "maxPhaseTwo",
      "outputs": [
        {
          "internalType": "uint32",
          "name": "",
          "type": "uint32"
        }
      ],
      "stateMutability": "view",
      "type": "function"
    },
    {
      "inputs": [],
      "name": "mint",
      "outputs": [],
      "stateMutability": "payable",
      "type": "function"
    },
    {
      "inputs": [],
      "name": "name",
      "outputs": [
        {
          "internalType": "string",
          "name": "",
          "type": "string"
        }
      ],
      "stateMutability": "view",
      "type": "function"
    },
    {
      "inputs": [
        {
          "internalType": "contract IMossyDescriptor",
          "name": "_descriptor",
          "type": "address"
        }
      ],
      "name": "open",
      "outputs": [],
      "stateMutability": "nonpayable",
      "type": "function"
    },
    {
      "inputs": [],
      "name": "owner",
      "outputs": [
        {
          "internalType": "address",
          "name": "",
          "type": "address"
        }
      ],
      "stateMutability": "view",
      "type": "function"
    },
    {
      "inputs": [
        {
          "internalType": "uint256",
          "name": "tokenId",
          "type": "uint256"
        }
      ],
      "name": "ownerOf",
      "outputs": [
        {
          "internalType": "address",
          "name": "",
          "type": "address"
        }
      ],
      "stateMutability": "view",
      "type": "function"
    },
    {
      "inputs": [],
      "name": "phaseOneFee",
      "outputs": [
        {
          "internalType": "uint64",
          "name": "",
          "type": "uint64"
        }
      ],
      "stateMutability": "view",
      "type": "function"
    },
    {
      "inputs": [],
      "name": "phaseOneSold",
      "outputs": [
        {
          "internalType": "uint32",
          "name": "",
          "type": "uint32"
        }
      ],
      "stateMutability": "view",
      "type": "function"
    },
    {
      "inputs": [],
      "name": "phaseTwoFee",
      "outputs": [
        {
          "internalType": "uint64",
          "name": "",
          "type": "uint64"
        }
      ],
      "stateMutability": "view",
      "type": "function"
    },
    {
      "inputs": [],
      "name": "phaseTwoSold",
      "outputs": [
        {
          "internalType": "uint32",
          "name": "",
          "type": "uint32"
        }
      ],
      "stateMutability": "view",
      "type": "function"
    },
    {
      "inputs": [],
      "name": "renounceOwnership",
      "outputs": [],
      "stateMutability": "nonpayable",
      "type": "function"
    },
    {
      "inputs": [
        {
          "internalType": "address",
          "name": "from",
          "type": "address"
        },
        {
          "internalType": "address",
          "name": "to",
          "type": "address"
        },
        {
          "internalType": "uint256",
          "name": "tokenId",
          "type": "uint256"
        }
      ],
      "name": "safeTransferFrom",
      "outputs": [],
      "stateMutability": "nonpayable",
      "type": "function"
    },
    {
      "inputs": [
        {
          "internalType": "address",
          "name": "from",
          "type": "address"
        },
        {
          "internalType": "address",
          "name": "to",
          "type": "address"
        },
        {
          "internalType": "uint256",
          "name": "tokenId",
          "type": "uint256"
        },
        {
          "internalType": "bytes",
          "name": "data",
          "type": "bytes"
        }
      ],
      "name": "safeTransferFrom",
      "outputs": [],
      "stateMutability": "nonpayable",
      "type": "function"
    },
    {
      "inputs": [
        {
          "internalType": "address",
          "name": "operator",
          "type": "address"
        },
        {
          "internalType": "bool",
          "name": "approved",
          "type": "bool"
        }
      ],
      "name": "setApprovalForAll",
      "outputs": [],
      "stateMutability": "nonpayable",
      "type": "function"
    },
    {
      "inputs": [
        {
          "internalType": "bytes4",
          "name": "interfaceId",
          "type": "bytes4"
        }
      ],
      "name": "supportsInterface",
      "outputs": [
        {
          "internalType": "bool",
          "name": "",
          "type": "bool"
        }
      ],
      "stateMutability": "view",
      "type": "function"
    },
    {
      "inputs": [],
      "name": "symbol",
      "outputs": [
        {
          "internalType": "string",
          "name": "",
          "type": "string"
        }
      ],
      "stateMutability": "view",
      "type": "function"
    },
    {
      "inputs": [
        {
          "internalType": "uint256",
          "name": "",
          "type": "uint256"
        }
      ],
      "name": "token2Metas",
      "outputs": [
        {
          "internalType": "uint256",
          "name": "",
          "type": "uint256"
        }
      ],
      "stateMutability": "view",
      "type": "function"
    },
    {
      "inputs": [
        {
          "internalType": "uint256",
          "name": "index",
          "type": "uint256"
        }
      ],
      "name": "tokenByIndex",
      "outputs": [
        {
          "internalType": "uint256",
          "name": "",
          "type": "uint256"
        }
      ],
      "stateMutability": "view",
      "type": "function"
    },
    {
      "inputs": [
        {
          "internalType": "address",
          "name": "owner",
          "type": "address"
        },
        {
          "internalType": "uint256",
          "name": "index",
          "type": "uint256"
        }
      ],
      "name": "tokenOfOwnerByIndex",
      "outputs": [
        {
          "internalType": "uint256",
          "name": "",
          "type": "uint256"
        }
      ],
      "stateMutability": "view",
      "type": "function"
    },
    {
      "inputs": [
        {
          "internalType": "uint256",
          "name": "id",
          "type": "uint256"
        }
      ],
      "name": "tokenURI",
      "outputs": [
        {
          "internalType": "string",
          "name": "",
          "type": "string"
        }
      ],
      "stateMutability": "view",
      "type": "function"
    },
    {
      "inputs": [],
      "name": "totalSupply",
      "outputs": [
        {
          "internalType": "uint256",
          "name": "",
          "type": "uint256"
        }
      ],
      "stateMutability": "view",
      "type": "function"
    },
    {
      "inputs": [
        {
          "internalType": "address",
          "name": "from",
          "type": "address"
        },
        {
          "internalType": "address",
          "name": "to",
          "type": "address"
        },
        {
          "internalType": "uint256",
          "name": "tokenId",
          "type": "uint256"
        }
      ],
      "name": "transferFrom",
      "outputs": [],
      "stateMutability": "nonpayable",
      "type": "function"
    },
    {
      "inputs": [
        {
          "internalType": "address",
          "name": "newOwner",
          "type": "address"
        }
      ],
      "name": "transferOwnership",
      "outputs": [],
      "stateMutability": "nonpayable",
      "type": "function"
    },
    {
      "inputs": [
        {
          "internalType": "uint64",
          "name": "_freeStart",
          "type": "uint64"
        },
        {
          "internalType": "uint64",
          "name": "_freeEnd",
          "type": "uint64"
        },
        {
          "internalType": "uint64",
          "name": "_fundingStart",
          "type": "uint64"
        },
        {
          "internalType": "uint64",
          "name": "_fundingEnd",
          "type": "uint64"
        }
      ],
      "name": "updateTime",
      "outputs": [],
      "stateMutability": "nonpayable",
      "type": "function"
    },
    {
      "inputs": [
        {
          "internalType": "address[]",
          "name": "list",
          "type": "address[]"
        },
        {
          "internalType": "bool",
          "name": "enabled",
          "type": "bool"
        }
      ],
      "name": "updateWL",
      "outputs": [],
      "stateMutability": "nonpayable",
      "type": "function"
    },
    {
      "inputs": [
        {
          "internalType": "contract IERC20",
          "name": "coin",
          "type": "address"
        },
        {
          "internalType": "address",
          "name": "to",
          "type": "address"
        },
        {
          "internalType": "uint256",
          "name": "value",
          "type": "uint256"
        }
      ],
      "name": "withdraw",
      "outputs": [],
      "stateMutability": "nonpayable",
      "type": "function"
    },
    {
      "stateMutability": "payable",
      "type": "receive"
    }
  ],
  "transactionHash": "0x1916ef1a06a73e6bf68a17030c8ff34c3b6cfd03e7b7c64bd9373bc7913ce6a2",
  "args": [],
  "numDeployments": 1,
  "solcInputHash": "53c9de7e8e425cb83c1c805287b62141",
  "bytecode": "0x608060405261012e80546001600160801b031916600517905534801561002457600080fd5b506136b4806100346000396000f3fe6080604052600436106102a45760003560e01c806375aa830d1161016e578063b88d4fde116100cb578063c87b56dd1161007f578063e985e9c511610064578063e985e9c51461078a578063eced0280146107d3578063f2fde38b146107f557600080fd5b8063c87b56dd1461074a578063d9caed121461076a57600080fd5b8063baf3815a116100b0578063baf3815a146106d7578063bcde18f1146106f7578063bce5d7ec1461072057600080fd5b8063b88d4fde14610697578063b95460f8146106b757600080fd5b806395d89b4111610122578063a37d6e0f11610107578063a37d6e0f14610621578063a744a7a614610647578063af406fba1461067557600080fd5b806395d89b41146105ec578063a22cb4651461060157600080fd5b80638431f2ab116101535780638431f2ab1461059057806388ed2c7d146105ae5780638da5cb5b146105ce57600080fd5b806375aa830d1461055a57806376e8fd941461057557600080fd5b80632f745c591161021c57806350769351116101d05780636352211e116101b55780636352211e1461050557806370a0823114610525578063715018a61461054557600080fd5b806350769351146104c2578063614cb597146104f057600080fd5b806347ec08501161020157806347ec08501461044a578063485a68a3146104785780634f6ccce7146104a257600080fd5b80632f745c591461040a57806342842e0e1461042a57600080fd5b80631249c58b1161027357806313e7323e1161025857806313e7323e1461038957806318160ddd146103cb57806323b872dd146103ea57600080fd5b80631249c58b1461036157806313e094531461036957600080fd5b806301ffc9a7146102b057806306fdde03146102e5578063081812fc14610307578063095ea7b31461033f57600080fd5b366102ab57005b600080fd5b3480156102bc57600080fd5b506102d06102cb366004612dd5565b610815565b60405190151581526020015b60405180910390f35b3480156102f157600080fd5b506102fa610871565b6040516102dc9190612e49565b34801561031357600080fd5b50610327610322366004612e5c565b610903565b6040516001600160a01b0390911681526020016102dc565b34801561034b57600080fd5b5061035f61035a366004612e8a565b61092a565b005b61035f610a60565b34801561037557600080fd5b5061035f610384366004612ed3565b610ce6565b34801561039557600080fd5b5061012d546103b290600160c01b900467ffffffffffffffff1681565b60405167ffffffffffffffff90911681526020016102dc565b3480156103d757600080fd5b506099545b6040519081526020016102dc565b3480156103f657600080fd5b5061035f610405366004612f3a565b610f25565b34801561041657600080fd5b506103dc610425366004612e8a565b610f98565b34801561043657600080fd5b5061035f610445366004612f3a565b611040565b34801561045657600080fd5b5061012d546103b29068010000000000000000900467ffffffffffffffff1681565b34801561048457600080fd5b5061048d600a81565b60405163ffffffff90911681526020016102dc565b3480156104ae57600080fd5b506103dc6104bd366004612e5c565b6110b3565b3480156104ce57600080fd5b5061012e5461048d906c01000000000000000000000000900463ffffffff1681565b3480156104fc57600080fd5b5061048d600581565b34801561051157600080fd5b50610327610520366004612e5c565b611157565b34801561053157600080fd5b506103dc610540366004612f7b565b6111bc565b34801561055157600080fd5b5061035f611256565b34801561056657600080fd5b506103b2662386f26fc1000081565b34801561058157600080fd5b506103b26611c37937e0800081565b34801561059c57600080fd5b5061012e5461048d9063ffffffff1681565b3480156105ba57600080fd5b5061035f6105c9366004612ff8565b611268565b3480156105da57600080fd5b5060c9546001600160a01b0316610327565b3480156105f857600080fd5b506102fa6112d8565b34801561060d57600080fd5b5061035f61061c3660046130bc565b6112e7565b34801561062d57600080fd5b5061012e5461048d90640100000000900463ffffffff1681565b34801561065357600080fd5b506103dc610662366004612e5c565b6101306020526000908152604090205481565b34801561068157600080fd5b5061012d546103b29067ffffffffffffffff1681565b3480156106a357600080fd5b5061035f6106b236600461311d565b6112f6565b3480156106c357600080fd5b5061035f6106d2366004612f7b565b611370565b3480156106e357600080fd5b5061035f6106f23660046131cc565b6114a2565b34801561070357600080fd5b5061012d546103b290600160801b900467ffffffffffffffff1681565b34801561072c57600080fd5b5061012e5461048d9068010000000000000000900463ffffffff1681565b34801561075657600080fd5b506102fa610765366004612e5c565b611543565b34801561077657600080fd5b5061035f610785366004612f3a565b6116fd565b34801561079657600080fd5b506102d06107a5366004613220565b6001600160a01b039182166000908152606a6020908152604080832093909416825291909152205460ff1690565b3480156107df57600080fd5b506107e86117df565b6040516102dc9190613264565b34801561080157600080fd5b5061035f610810366004612f7b565b61186e565b60007fffffffff0000000000000000000000000000000000000000000000000000000082167f780e9d6300000000000000000000000000000000000000000000000000000000148061086b575061086b826118fe565b92915050565b6060606580546108809061328c565b80601f01602080910402602001604051908101604052809291908181526020018280546108ac9061328c565b80156108f95780601f106108ce576101008083540402835291602001916108f9565b820191906000526020600020905b8154815290600101906020018083116108dc57829003601f168201915b5050505050905090565b600061090e826119e1565b506000908152606960205260409020546001600160a01b031690565b600061093582611157565b9050806001600160a01b0316836001600160a01b0316036109c35760405162461bcd60e51b815260206004820152602160248201527f4552433732313a20617070726f76616c20746f2063757272656e74206f776e6560448201527f720000000000000000000000000000000000000000000000000000000000000060648201526084015b60405180910390fd5b336001600160a01b03821614806109df57506109df81336107a5565b610a515760405162461bcd60e51b815260206004820152603d60248201527f4552433732313a20617070726f76652063616c6c6572206973206e6f7420746f60448201527f6b656e206f776e6572206f7220617070726f76656420666f7220616c6c00000060648201526084016109ba565b610a5b8383611a45565b505050565b610a69336111bc565b15610ab65760405162461bcd60e51b815260206004820152601b60248201527f4f6e652063616e206f6e6c7920686f6c64206f6e6520746f6b656e000000000060448201526064016109ba565b610abe611ac0565b6000610ac86117df565b90506000816004811115610ade57610ade61324e565b03610b2b5760405162461bcd60e51b815260206004820152601860248201527f46726565206d696e74696e67206973206e6f74206f70656e000000000000000060448201526064016109ba565b6002816004811115610b3f57610b3f61324e565b03610b8c5760405162461bcd60e51b815260206004820152601b60248201527f46756e64696e67206d696e74696e67206973206e6f74206f70656e000000000060448201526064016109ba565b6004816004811115610ba057610ba061324e565b03610bed5760405162461bcd60e51b815260206004820152601160248201527f4d696e74696e6720697320636c6f73656400000000000000000000000000000060448201526064016109ba565b336001826004811115610c0257610c0261324e565b03610c79576001600160a01b0381166000908152610131602052604090205460ff16610c705760405162461bcd60e51b815260206004820152601b60248201527f43616c6c6572206973206e6f7420696e207768697465206c697374000000000060448201526064016109ba565b610c7981611b19565b6003826004811115610c8d57610c8d61324e565b03610c9b57610c9b81611c32565b61012e8054600160801b900463ffffffff16906010610cb9836132dc565b91906101000a81548163ffffffff021916908363ffffffff160217905550505050610ce4600160fb55565b565b600054610100900460ff1615808015610d065750600054600160ff909116105b80610d205750303b158015610d20575060005460ff166001145b610d925760405162461bcd60e51b815260206004820152602e60248201527f496e697469616c697a61626c653a20636f6e747261637420697320616c72656160448201527f647920696e697469616c697a656400000000000000000000000000000000000060648201526084016109ba565b6000805460ff191660011790558015610db5576000805461ff0019166101001790555b428567ffffffffffffffff161015610dcc57600080fd5b8367ffffffffffffffff168567ffffffffffffffff1610610dec57600080fd5b8267ffffffffffffffff168467ffffffffffffffff161115610e0d57600080fd5b8167ffffffffffffffff168367ffffffffffffffff1610610e2d57600080fd5b610e3686611f23565b61012e8054610dac63ffffffff1990911617905561012d805467ffffffffffffffff8781167fffffffffffffffffffffffffffffffff00000000000000000000000000000000909216919091176801000000000000000087831602176fffffffffffffffffffffffffffffffff16600160801b8683160277ffffffffffffffffffffffffffffffffffffffffffffffff1617600160c01b918516919091021790558015610f1d576000805461ff0019169055604051600181527f7f26b83ff96e1f2b6a682f133852f6798a09c465da95921460cefb38474024989060200160405180910390a15b505050505050565b6004610f2f6117df565b6004811115610f4057610f4061324e565b14610f8d5760405162461bcd60e51b815260206004820152601560248201527f4d696e74696e67206973206e6f7420656e64696e67000000000000000000000060448201526064016109ba565b610a5b838383611f82565b6000610fa3836111bc565b82106110175760405162461bcd60e51b815260206004820152602b60248201527f455243373231456e756d657261626c653a206f776e657220696e646578206f7560448201527f74206f6620626f756e647300000000000000000000000000000000000000000060648201526084016109ba565b506001600160a01b03919091166000908152609760209081526040808320938352929052205490565b600461104a6117df565b600481111561105b5761105b61324e565b146110a85760405162461bcd60e51b815260206004820152601560248201527f4d696e74696e67206973206e6f7420656e64696e67000000000000000000000060448201526064016109ba565b610a5b838383612009565b60006110be60995490565b82106111325760405162461bcd60e51b815260206004820152602c60248201527f455243373231456e756d657261626c653a20676c6f62616c20696e646578206f60448201527f7574206f6620626f756e6473000000000000000000000000000000000000000060648201526084016109ba565b60998281548110611145576111456132ff565b90600052602060002001549050919050565b6000818152606760205260408120546001600160a01b03168061086b5760405162461bcd60e51b815260206004820152601860248201527f4552433732313a20696e76616c696420746f6b656e204944000000000000000060448201526064016109ba565b60006001600160a01b03821661123a5760405162461bcd60e51b815260206004820152602960248201527f4552433732313a2061646472657373207a65726f206973206e6f74206120766160448201527f6c6964206f776e6572000000000000000000000000000000000000000000000060648201526084016109ba565b506001600160a01b031660009081526068602052604090205490565b61125e612024565b610ce46000611f23565b611270612024565b60005b8251811015610a5b57816101316000858481518110611294576112946132ff565b6020908102919091018101516001600160a01b03168252810191909152604001600020805460ff1916911515919091179055806112d081613315565b915050611273565b6060606680546108809061328c565b6112f233838361207e565b5050565b60046113006117df565b60048111156113115761131161324e565b1461135e5760405162461bcd60e51b815260206004820152601560248201527f4d696e74696e67206973206e6f7420656e64696e67000000000000000000000060448201526064016109ba565b61136a8484848461214c565b50505050565b611378612024565b60046113826117df565b60048111156113935761139361324e565b14806113e0575061012e546001906005906113b59063ffffffff16600a61332f565b6113bf919061332f565b6113c99190613353565b61012e54600160801b900463ffffffff9081169116145b61142c5760405162461bcd60e51b815260206004820152601460248201527f4d696e74696e67206973206e6f7420656e64656400000000000000000000000060448201526064016109ba565b61012f805473ffffffffffffffffffffffffffffffffffffffff19166001600160a01b03831617905561012e546040805160008152600160801b90920463ffffffff1660208301527f6bd5c950a8d8df17f772f5af37cb3655737899cbf903264b9795592da439661c910160405180910390a150565b6114aa612024565b61012d805467ffffffffffffffff9586167fffffffffffffffffffffffffffffffff00000000000000000000000000000000909116176801000000000000000094861694909402939093176fffffffffffffffffffffffffffffffff16600160801b9285169290920277ffffffffffffffffffffffffffffffffffffffffffffffff1691909117600160c01b9190931602919091179055565b6060600061154f6117df565b905060048160048111156115655761156561324e565b1461158a5760405180608001604052806042815260200161363d604291399392505050565b61012f546001600160a01b03166115e35760405162461bcd60e51b815260206004820152601860248201527f4d6f7373793a204e6f204e46542064657363726970746f72000000000000000060448201526064016109ba565b60006115ee846121d4565b6040516020016115fe9190613370565b60408051808303601f1901815282825261012f546000888152610130602052928320547f529ca207000000000000000000000000000000000000000000000000000000008552600485015290935090916001600160a01b039091169063529ca20790602401600060405180830381865afa158015611680573d6000803e3d6000fd5b505050506040513d6000823e601f3d908101601f191682016040526116a891908101906133b5565b905060008283836040516020016116c19392919061342c565b6040516020818303038152906040529050806040516020016116e39190613516565b604051602081830303815290604052945050505050919050565b611705612024565b6001600160a01b03831661175357610a5b82826040518060400160405280601b81526020017f7769746864726177206e617469766520636f696e206661696c65640000000000815250612274565b6040517fa9059cbb0000000000000000000000000000000000000000000000000000000081526001600160a01b0383811660048301526024820183905284169063a9059cbb906044016020604051808303816000875af11580156117bb573d6000803e3d6000fd5b505050506040513d601f19601f8201168201806040525081019061136a919061355b565b61012d5460009067ffffffffffffffff164210156117fd5750600090565b61012d5468010000000000000000900467ffffffffffffffff164210156118245750600190565b61012d54600160801b900467ffffffffffffffff164210156118465750600290565b61012d54600160c01b900467ffffffffffffffff164210156118685750600390565b50600490565b611876612024565b6001600160a01b0381166118f25760405162461bcd60e51b815260206004820152602660248201527f4f776e61626c653a206e6577206f776e657220697320746865207a65726f206160448201527f646472657373000000000000000000000000000000000000000000000000000060648201526084016109ba565b6118fb81611f23565b50565b60007fffffffff0000000000000000000000000000000000000000000000000000000082167f80ac58cd00000000000000000000000000000000000000000000000000000000148061199157507fffffffff0000000000000000000000000000000000000000000000000000000082167f5b5e139f00000000000000000000000000000000000000000000000000000000145b8061086b57507f01ffc9a7000000000000000000000000000000000000000000000000000000007fffffffff0000000000000000000000000000000000000000000000000000000083161461086b565b6000818152606760205260409020546001600160a01b03166118fb5760405162461bcd60e51b815260206004820152601860248201527f4552433732313a20696e76616c696420746f6b656e204944000000000000000060448201526064016109ba565b6000818152606960205260409020805473ffffffffffffffffffffffffffffffffffffffff19166001600160a01b0384169081179091558190611a8782611157565b6001600160a01b03167f8c5be1e5ebec7d5bd14f71427d1e84f3dd0314c0f7b2291e5b200ac8c7c3b92560405160405180910390a45050565b600260fb5403611b125760405162461bcd60e51b815260206004820152601f60248201527f5265656e7472616e637947756172643a207265656e7472616e742063616c6c0060448201526064016109ba565b600260fb55565b611b22816111bc565b15611b6f5760405162461bcd60e51b815260206004820152601660248201527f4f6e652063616e20686f6c64206f6e6520746f6b656e0000000000000000000060448201526064016109ba565b61012e54600a64010000000090910463ffffffff1610611bd15760405162461bcd60e51b815260206004820152601e60248201527f46726565206d696e74696e6720686173206265656e20736f6c64206f7574000060448201526064016109ba565b61012e8054640100000000900463ffffffff16906004611bf0836132dc565b91906101000a81548163ffffffff021916908363ffffffff160217905550506118fb8161012e60109054906101000a900463ffffffff1663ffffffff166122f1565b61012e5474010000000000000000000000000000000000000000900460ff16611cdc5761012e80547fffffffffffffffffffffff00ffffffffffffffffffffffffffffffffffffffff811674010000000000000000000000000000000000000000179182905563ffffffff640100000000909204821691611cb691600a911661332f565b611cc09190613353565b61012e805463ffffffff191663ffffffff929092169190911790555b61012e5463ffffffff80821668010000000000000000909204161015611ddc576611c37937e08000341015611d535760405162461bcd60e51b815260206004820152601a60248201527f696e73756666696369656e742066756e647320746f206d696e7400000000000060448201526064016109ba565b6611c37937e08000341115611d9557611d9581611d776611c37937e0800034613578565b6040518060600160405280602181526020016135fb60219139612274565b61012e805468010000000000000000900463ffffffff16906008611db8836132dc565b91906101000a81548163ffffffff021916908363ffffffff16021790555050611f07565b61012e5460056c0100000000000000000000000090910463ffffffff161015611ebf57662386f26fc10000341015611e565760405162461bcd60e51b815260206004820152601a60248201527f696e73756666696369656e742066756e647320746f206d696e7400000000000060448201526064016109ba565b662386f26fc10000341115611e9857611e9881611e7a662386f26fc1000034613578565b60405180606001604052806021815260200161361c60219139612274565b61012e80546c01000000000000000000000000900463ffffffff1690600c611db8836132dc565b60405162461bcd60e51b815260206004820152601360248201527f416c6c20746f6b656e7320736f6c64206f75740000000000000000000000000060448201526064016109ba565b61012e546118fb908290600160801b900463ffffffff166122f1565b60c980546001600160a01b0383811673ffffffffffffffffffffffffffffffffffffffff19831681179093556040519116919082907f8be0079c531659141344cd1fd0a4f28419497f9722a3daafe3b4186f6b6457e090600090a35050565b611f8c338261236e565b611ffe5760405162461bcd60e51b815260206004820152602d60248201527f4552433732313a2063616c6c6572206973206e6f7420746f6b656e206f776e6560448201527f72206f7220617070726f7665640000000000000000000000000000000000000060648201526084016109ba565b610a5b8383836123ed565b610a5b838383604051806020016040528060008152506112f6565b60c9546001600160a01b03163314610ce45760405162461bcd60e51b815260206004820181905260248201527f4f776e61626c653a2063616c6c6572206973206e6f7420746865206f776e657260448201526064016109ba565b816001600160a01b0316836001600160a01b0316036120df5760405162461bcd60e51b815260206004820152601960248201527f4552433732313a20617070726f766520746f2063616c6c65720000000000000060448201526064016109ba565b6001600160a01b038381166000818152606a6020908152604080832094871680845294825291829020805460ff191686151590811790915591519182527f17307eab39ab6107e8899845ad3d59bd9653f200f220920489ca2b5937696c31910160405180910390a3505050565b612156338361236e565b6121c85760405162461bcd60e51b815260206004820152602d60248201527f4552433732313a2063616c6c6572206973206e6f7420746f6b656e206f776e6560448201527f72206f7220617070726f7665640000000000000000000000000000000000000060648201526084016109ba565b61136a84848484612630565b606060006121e1836126b9565b600101905060008167ffffffffffffffff81111561220157612201612f98565b6040519080825280601f01601f19166020018201604052801561222b576020820181803683370190505b5090508181016020015b600019017f3031323334353637383961626364656600000000000000000000000000000000600a86061a8153600a850494508461223557509392505050565b6000836001600160a01b03168360405160006040518083038185875af1925050503d80600081146122c1576040519150601f19603f3d011682016040523d82523d6000602084013e6122c6565b606091505b505090508082906122ea5760405162461bcd60e51b81526004016109ba9190612e49565b5050505050565b60408051606084901b7fffffffffffffffffffffffffffffffffffffffff00000000000000000000000016602080830191909152603482018490524360548084019190915283518084039091018152607490920190925280519101206000906000838152610130602052604090208190559050610a5b838361279b565b60008061237a83611157565b9050806001600160a01b0316846001600160a01b031614806123c157506001600160a01b038082166000908152606a602090815260408083209388168352929052205460ff165b806123e55750836001600160a01b03166123da84610903565b6001600160a01b0316145b949350505050565b826001600160a01b031661240082611157565b6001600160a01b03161461247c5760405162461bcd60e51b815260206004820152602560248201527f4552433732313a207472616e736665722066726f6d20696e636f72726563742060448201527f6f776e657200000000000000000000000000000000000000000000000000000060648201526084016109ba565b6001600160a01b0382166124f75760405162461bcd60e51b8152602060048201526024808201527f4552433732313a207472616e7366657220746f20746865207a65726f2061646460448201527f726573730000000000000000000000000000000000000000000000000000000060648201526084016109ba565b6125048383836001612941565b826001600160a01b031661251782611157565b6001600160a01b0316146125935760405162461bcd60e51b815260206004820152602560248201527f4552433732313a207472616e736665722066726f6d20696e636f72726563742060448201527f6f776e657200000000000000000000000000000000000000000000000000000060648201526084016109ba565b6000818152606960209081526040808320805473ffffffffffffffffffffffffffffffffffffffff199081169091556001600160a01b0387811680865260688552838620805460001901905590871680865283862080546001019055868652606790945282852080549092168417909155905184937fddf252ad1be2c89b69c2b068fc378daa952ba7f163c4a11628f55a4df523b3ef91a4505050565b61263b8484846123ed565b61264784848484612a76565b61136a5760405162461bcd60e51b815260206004820152603260248201527f4552433732313a207472616e7366657220746f206e6f6e20455243373231526560448201527f63656976657220696d706c656d656e746572000000000000000000000000000060648201526084016109ba565b6000807a184f03e93ff9f4daa797ed6e38ed64bf6a1f0100000000000000008310612702577a184f03e93ff9f4daa797ed6e38ed64bf6a1f010000000000000000830492506040015b6d04ee2d6d415b85acef8100000000831061272e576d04ee2d6d415b85acef8100000000830492506020015b662386f26fc10000831061274c57662386f26fc10000830492506010015b6305f5e1008310612764576305f5e100830492506008015b612710831061277857612710830492506004015b6064831061278a576064830492506002015b600a831061086b5760010192915050565b6001600160a01b0382166127f15760405162461bcd60e51b815260206004820181905260248201527f4552433732313a206d696e7420746f20746865207a65726f206164647265737360448201526064016109ba565b6000818152606760205260409020546001600160a01b0316156128565760405162461bcd60e51b815260206004820152601c60248201527f4552433732313a20746f6b656e20616c7265616479206d696e7465640000000060448201526064016109ba565b612864600083836001612941565b6000818152606760205260409020546001600160a01b0316156128c95760405162461bcd60e51b815260206004820152601c60248201527f4552433732313a20746f6b656e20616c7265616479206d696e7465640000000060448201526064016109ba565b6001600160a01b0382166000818152606860209081526040808320805460010190558483526067909152808220805473ffffffffffffffffffffffffffffffffffffffff19168417905551839291907fddf252ad1be2c89b69c2b068fc378daa952ba7f163c4a11628f55a4df523b3ef908290a45050565b60018111156129b85760405162461bcd60e51b815260206004820152603560248201527f455243373231456e756d657261626c653a20636f6e736563757469766520747260448201527f616e7366657273206e6f7420737570706f72746564000000000000000000000060648201526084016109ba565b816001600160a01b038516612a1457612a0f81609980546000838152609a60205260408120829055600182018355919091527f72a152ddfb8e864297c917af52ea6c1c68aead0fee1a62673fcc7e0c94979d000155565b612a37565b836001600160a01b0316856001600160a01b031614612a3757612a378582612c17565b6001600160a01b038416612a5357612a4e81612cb4565b6122ea565b846001600160a01b0316846001600160a01b0316146122ea576122ea8482612d63565b60006001600160a01b0384163b15612c0c576040517f150b7a020000000000000000000000000000000000000000000000000000000081526001600160a01b0385169063150b7a0290612ad390339089908890889060040161358b565b6020604051808303816000875af1925050508015612b0e575060408051601f3d908101601f19168201909252612b0b918101906135c7565b60015b612bc1573d808015612b3c576040519150601f19603f3d011682016040523d82523d6000602084013e612b41565b606091505b508051600003612bb95760405162461bcd60e51b815260206004820152603260248201527f4552433732313a207472616e7366657220746f206e6f6e20455243373231526560448201527f63656976657220696d706c656d656e746572000000000000000000000000000060648201526084016109ba565b805181602001fd5b7fffffffff00000000000000000000000000000000000000000000000000000000167f150b7a02000000000000000000000000000000000000000000000000000000001490506123e5565b506001949350505050565b60006001612c24846111bc565b612c2e9190613578565b600083815260986020526040902054909150808214612c81576001600160a01b03841660009081526097602090815260408083208584528252808320548484528184208190558352609890915290208190555b5060009182526098602090815260408084208490556001600160a01b039094168352609781528383209183525290812055565b609954600090612cc690600190613578565b6000838152609a602052604081205460998054939450909284908110612cee57612cee6132ff565b906000526020600020015490508060998381548110612d0f57612d0f6132ff565b6000918252602080832090910192909255828152609a90915260408082208490558582528120556099805480612d4757612d476135e4565b6001900381819060005260206000200160009055905550505050565b6000612d6e836111bc565b6001600160a01b039093166000908152609760209081526040808320868452825280832085905593825260989052919091209190915550565b7fffffffff00000000000000000000000000000000000000000000000000000000811681146118fb57600080fd5b600060208284031215612de757600080fd5b8135612df281612da7565b9392505050565b60005b83811015612e14578181015183820152602001612dfc565b50506000910152565b60008151808452612e35816020860160208601612df9565b601f01601f19169290920160200192915050565b602081526000612df26020830184612e1d565b600060208284031215612e6e57600080fd5b5035919050565b6001600160a01b03811681146118fb57600080fd5b60008060408385031215612e9d57600080fd5b8235612ea881612e75565b946020939093013593505050565b803567ffffffffffffffff81168114612ece57600080fd5b919050565b600080600080600060a08688031215612eeb57600080fd5b8535612ef681612e75565b9450612f0460208701612eb6565b9350612f1260408701612eb6565b9250612f2060608701612eb6565b9150612f2e60808701612eb6565b90509295509295909350565b600080600060608486031215612f4f57600080fd5b8335612f5a81612e75565b92506020840135612f6a81612e75565b929592945050506040919091013590565b600060208284031215612f8d57600080fd5b8135612df281612e75565b634e487b7160e01b600052604160045260246000fd5b604051601f8201601f1916810167ffffffffffffffff81118282101715612fd757612fd7612f98565b604052919050565b80151581146118fb57600080fd5b8035612ece81612fdf565b6000806040838503121561300b57600080fd5b823567ffffffffffffffff8082111561302357600080fd5b818501915085601f83011261303757600080fd5b813560208282111561304b5761304b612f98565b8160051b925061305c818401612fae565b828152928401810192818101908985111561307657600080fd5b948201945b848610156130a0578535935061309084612e75565b838252948201949082019061307b565b96506130af9050878201612fed565b9450505050509250929050565b600080604083850312156130cf57600080fd5b82356130da81612e75565b915060208301356130ea81612fdf565b809150509250929050565b600067ffffffffffffffff82111561310f5761310f612f98565b50601f01601f191660200190565b6000806000806080858703121561313357600080fd5b843561313e81612e75565b9350602085013561314e81612e75565b925060408501359150606085013567ffffffffffffffff81111561317157600080fd5b8501601f8101871361318257600080fd5b8035613195613190826130f5565b612fae565b8181528860208385010111156131aa57600080fd5b8160208401602083013760006020838301015280935050505092959194509250565b600080600080608085870312156131e257600080fd5b6131eb85612eb6565b93506131f960208601612eb6565b925061320760408601612eb6565b915061321560608601612eb6565b905092959194509250565b6000806040838503121561323357600080fd5b823561323e81612e75565b915060208301356130ea81612e75565b634e487b7160e01b600052602160045260246000fd5b602081016005831061328657634e487b7160e01b600052602160045260246000fd5b91905290565b600181811c908216806132a057607f821691505b6020821081036132c057634e487b7160e01b600052602260045260246000fd5b50919050565b634e487b7160e01b600052601160045260246000fd5b600063ffffffff8083168181036132f5576132f56132c6565b6001019392505050565b634e487b7160e01b600052603260045260246000fd5b60006000198203613328576133286132c6565b5060010190565b63ffffffff81811683821601908082111561334c5761334c6132c6565b5092915050565b63ffffffff82811682821603908082111561334c5761334c6132c6565b7f404d6f7373792d000000000000000000000000000000000000000000000000008152600082516133a8816007850160208701612df9565b9190910160070192915050565b6000602082840312156133c757600080fd5b815167ffffffffffffffff8111156133de57600080fd5b8201601f810184136133ef57600080fd5b80516133fd613190826130f5565b81815285602083850101111561341257600080fd5b613423826020830160208601612df9565b95945050505050565b7f7b226e616d65223a220000000000000000000000000000000000000000000000815260008451613464816009850160208901612df9565b7f222c226465736372697074696f6e223a2200000000000000000000000000000060099184019182015284516134a181601a840160208901612df9565b7f222c22696d6167655f64617461223a2200000000000000000000000000000000601a929091019182015283516134df81602a840160208801612df9565b7f227d000000000000000000000000000000000000000000000000000000000000602a9290910191820152602c0195945050505050565b7f646174613a6170706c69636174696f6e2f6a736f6e3b757466382c000000000081526000825161354e81601b850160208701612df9565b91909101601b0192915050565b60006020828403121561356d57600080fd5b8151612df281612fdf565b8181038181111561086b5761086b6132c6565b60006001600160a01b038087168352808616602084015250836040830152608060608301526135bd6080830184612e1d565b9695505050505050565b6000602082840312156135d957600080fd5b8151612df281612da7565b634e487b7160e01b600052603160045260246000fdfe7472616e73666572206261636b206661696c6564206174207068617365206f6e657472616e73666572206261636b206661696c65642061742070686173652074776f697066733a2f2f6261666b7265696633757a77646e3532746173673767626235697a73783670333271626d357a71687477376e3376346d6868656f6a697569697171a26469706673582212200afcc3af18e56828e3c0dd9d5c8905cafea15b9388f65084592e4a0884908c8f64736f6c63430008130033",
  "devdoc": {
    "events": {
      "Approval(address,address,uint256)": {
        "details": "Emitted when `owner` enables `approved` to manage the `tokenId` token."
      },
      "ApprovalForAll(address,address,bool)": {
        "details": "Emitted when `owner` enables or disables (`approved`) `operator` to manage all of its assets."
      },
      "BatchMetadataUpdate(uint256,uint256)": {
        "details": "This event emits when the metadata of a range of tokens is changed. So that the third-party platforms such as NFT market could timely update the images and related attributes of the NFTs."
      },
      "Initialized(uint8)": {
        "details": "Triggered when the contract has been initialized or reinitialized."
      },
      "MetadataUpdate(uint256)": {
        "details": "This event emits when the metadata of a token is changed. So that the third-party platforms such as NFT market could timely update the images and related attributes of the NFT."
      },
      "Transfer(address,address,uint256)": {
        "details": "Emitted when `tokenId` token is transferred from `from` to `to`."
      }
    },
    "kind": "dev",
    "methods": {
      "approve(address,uint256)": {
        "details": "See {IERC721-approve}."
      },
      "balanceOf(address)": {
        "details": "See {IERC721-balanceOf}."
      },
      "getApproved(uint256)": {
        "details": "See {IERC721-getApproved}."
      },
      "isApprovedForAll(address,address)": {
        "details": "See {IERC721-isApprovedForAll}."
      },
      "name()": {
        "details": "See {IERC721Metadata-name}."
      },
      "owner()": {
        "details": "Returns the address of the current owner."
      },
      "ownerOf(uint256)": {
        "details": "See {IERC721-ownerOf}."
      },
      "renounceOwnership()": {
        "details": "Leaves the contract without owner. It will not be possible to call `onlyOwner` functions. Can only be called by the current owner. NOTE: Renouncing ownership will leave the contract without an owner, thereby disabling any functionality that is only available to the owner."
      },
      "setApprovalForAll(address,bool)": {
        "details": "See {IERC721-setApprovalForAll}."
      },
      "supportsInterface(bytes4)": {
        "details": "See {IERC165-supportsInterface}."
      },
      "symbol()": {
        "details": "See {IERC721Metadata-symbol}."
      },
      "tokenByIndex(uint256)": {
        "details": "See {IERC721Enumerable-tokenByIndex}."
      },
      "tokenOfOwnerByIndex(address,uint256)": {
        "details": "See {IERC721Enumerable-tokenOfOwnerByIndex}."
      },
      "totalSupply()": {
        "details": "See {IERC721Enumerable-totalSupply}."
      },
      "transferOwnership(address)": {
        "details": "Transfers ownership of the contract to a new account (`newOwner`). Can only be called by the current owner."
      }
    },
    "version": 1
  },
  "userdoc": {
    "kind": "user",
    "methods": {},
    "version": 1
  },
  "storageLayout": {
    "storage": [
      {
        "astId": 138,
        "contract": "contracts/core/Mossy.sol:Mossy",
        "label": "_initialized",
        "offset": 0,
        "slot": "0",
        "type": "t_uint8"
      },
      {
        "astId": 141,
        "contract": "contracts/core/Mossy.sol:Mossy",
        "label": "_initializing",
        "offset": 1,
        "slot": "0",
        "type": "t_bool"
      },
      {
        "astId": 2273,
        "contract": "contracts/core/Mossy.sol:Mossy",
        "label": "__gap",
        "offset": 0,
        "slot": "1",
        "type": "t_array(t_uint256)50_storage"
      },
      {
        "astId": 2546,
        "contract": "contracts/core/Mossy.sol:Mossy",
        "label": "__gap",
        "offset": 0,
        "slot": "51",
        "type": "t_array(t_uint256)50_storage"
      },
      {
        "astId": 413,
        "contract": "contracts/core/Mossy.sol:Mossy",
        "label": "_name",
        "offset": 0,
        "slot": "101",
        "type": "t_string_storage"
      },
      {
        "astId": 415,
        "contract": "contracts/core/Mossy.sol:Mossy",
        "label": "_symbol",
        "offset": 0,
        "slot": "102",
        "type": "t_string_storage"
      },
      {
        "astId": 419,
        "contract": "contracts/core/Mossy.sol:Mossy",
        "label": "_owners",
        "offset": 0,
        "slot": "103",
        "type": "t_mapping(t_uint256,t_address)"
      },
      {
        "astId": 423,
        "contract": "contracts/core/Mossy.sol:Mossy",
        "label": "_balances",
        "offset": 0,
        "slot": "104",
        "type": "t_mapping(t_address,t_uint256)"
      },
      {
        "astId": 427,
        "contract": "contracts/core/Mossy.sol:Mossy",
        "label": "_tokenApprovals",
        "offset": 0,
        "slot": "105",
        "type": "t_mapping(t_uint256,t_address)"
      },
      {
        "astId": 433,
        "contract": "contracts/core/Mossy.sol:Mossy",
        "label": "_operatorApprovals",
        "offset": 0,
        "slot": "106",
        "type": "t_mapping(t_address,t_mapping(t_address,t_bool))"
      },
      {
        "astId": 1335,
        "contract": "contracts/core/Mossy.sol:Mossy",
        "label": "__gap",
        "offset": 0,
        "slot": "107",
        "type": "t_array(t_uint256)44_storage"
      },
      {
        "astId": 1500,
        "contract": "contracts/core/Mossy.sol:Mossy",
        "label": "_ownedTokens",
        "offset": 0,
        "slot": "151",
        "type": "t_mapping(t_address,t_mapping(t_uint256,t_uint256))"
      },
      {
        "astId": 1504,
        "contract": "contracts/core/Mossy.sol:Mossy",
        "label": "_ownedTokensIndex",
        "offset": 0,
        "slot": "152",
        "type": "t_mapping(t_uint256,t_uint256)"
      },
      {
        "astId": 1507,
        "contract": "contracts/core/Mossy.sol:Mossy",
        "label": "_allTokens",
        "offset": 0,
        "slot": "153",
        "type": "t_array(t_uint256)dyn_storage"
      },
      {
        "astId": 1511,
        "contract": "contracts/core/Mossy.sol:Mossy",
        "label": "_allTokensIndex",
        "offset": 0,
        "slot": "154",
        "type": "t_mapping(t_uint256,t_uint256)"
      },
      {
        "astId": 1843,
        "contract": "contracts/core/Mossy.sol:Mossy",
        "label": "__gap",
        "offset": 0,
        "slot": "155",
        "type": "t_array(t_uint256)46_storage"
      },
      {
        "astId": 10,
        "contract": "contracts/core/Mossy.sol:Mossy",
        "label": "_owner",
        "offset": 0,
        "slot": "201",
        "type": "t_address"
      },
      {
        "astId": 130,
        "contract": "contracts/core/Mossy.sol:Mossy",
        "label": "__gap",
        "offset": 0,
        "slot": "202",
        "type": "t_array(t_uint256)49_storage"
      },
      {
        "astId": 314,
        "contract": "contracts/core/Mossy.sol:Mossy",
        "label": "_status",
        "offset": 0,
        "slot": "251",
        "type": "t_uint256"
      },
      {
        "astId": 383,
        "contract": "contracts/core/Mossy.sol:Mossy",
        "label": "__gap",
        "offset": 0,
        "slot": "252",
        "type": "t_array(t_uint256)49_storage"
      },
      {
        "astId": 4595,
        "contract": "contracts/core/Mossy.sol:Mossy",
        "label": "freeStart",
        "offset": 0,
        "slot": "301",
        "type": "t_uint64"
      },
      {
        "astId": 4597,
        "contract": "contracts/core/Mossy.sol:Mossy",
        "label": "freeEnd",
        "offset": 8,
        "slot": "301",
        "type": "t_uint64"
      },
      {
        "astId": 4599,
        "contract": "contracts/core/Mossy.sol:Mossy",
        "label": "fundingStart",
        "offset": 16,
        "slot": "301",
        "type": "t_uint64"
      },
      {
        "astId": 4601,
        "contract": "contracts/core/Mossy.sol:Mossy",
        "label": "fundingEnd",
        "offset": 24,
        "slot": "301",
        "type": "t_uint64"
      },
      {
        "astId": 4607,
        "contract": "contracts/core/Mossy.sol:Mossy",
        "label": "maxPhaseOne",
        "offset": 0,
        "slot": "302",
        "type": "t_uint32"
      },
      {
        "astId": 4613,
        "contract": "contracts/core/Mossy.sol:Mossy",
        "label": "freeSold",
        "offset": 4,
        "slot": "302",
        "type": "t_uint32"
      },
      {
        "astId": 4616,
        "contract": "contracts/core/Mossy.sol:Mossy",
        "label": "phaseOneSold",
        "offset": 8,
        "slot": "302",
        "type": "t_uint32"
      },
      {
        "astId": 4619,
        "contract": "contracts/core/Mossy.sol:Mossy",
        "label": "phaseTwoSold",
        "offset": 12,
        "slot": "302",
        "type": "t_uint32"
      },
      {
        "astId": 4621,
        "contract": "contracts/core/Mossy.sol:Mossy",
        "label": "nonce",
        "offset": 16,
        "slot": "302",
        "type": "t_uint32"
      },
      {
        "astId": 4623,
        "contract": "contracts/core/Mossy.sol:Mossy",
        "label": "phaseUpdated",
        "offset": 20,
        "slot": "302",
        "type": "t_bool"
      },
      {
        "astId": 4632,
        "contract": "contracts/core/Mossy.sol:Mossy",
        "label": "descriptor",
        "offset": 0,
        "slot": "303",
        "type": "t_contract(IMossyDescriptor)5408"
      },
      {
        "astId": 4636,
        "contract": "contracts/core/Mossy.sol:Mossy",
        "label": "token2Metas",
        "offset": 0,
        "slot": "304",
        "type": "t_mapping(t_uint256,t_uint256)"
      },
      {
        "astId": 4640,
        "contract": "contracts/core/Mossy.sol:Mossy",
        "label": "wl",
        "offset": 0,
        "slot": "305",
        "type": "t_mapping(t_address,t_bool)"
      }
    ],
    "types": {
      "t_address": {
        "encoding": "inplace",
        "label": "address",
        "numberOfBytes": "20"
      },
      "t_array(t_uint256)44_storage": {
        "base": "t_uint256",
        "encoding": "inplace",
        "label": "uint256[44]",
        "numberOfBytes": "1408"
      },
      "t_array(t_uint256)46_storage": {
        "base": "t_uint256",
        "encoding": "inplace",
        "label": "uint256[46]",
        "numberOfBytes": "1472"
      },
      "t_array(t_uint256)49_storage": {
        "base": "t_uint256",
        "encoding": "inplace",
        "label": "uint256[49]",
        "numberOfBytes": "1568"
      },
      "t_array(t_uint256)50_storage": {
        "base": "t_uint256",
        "encoding": "inplace",
        "label": "uint256[50]",
        "numberOfBytes": "1600"
      },
      "t_array(t_uint256)dyn_storage": {
        "base": "t_uint256",
        "encoding": "dynamic_array",
        "label": "uint256[]",
        "numberOfBytes": "32"
      },
      "t_bool": {
        "encoding": "inplace",
        "label": "bool",
        "numberOfBytes": "1"
      },
      "t_contract(IMossyDescriptor)5408": {
        "encoding": "inplace",
        "label": "contract IMossyDescriptor",
        "numberOfBytes": "20"
      },
      "t_mapping(t_address,t_bool)": {
        "encoding": "mapping",
        "key": "t_address",
        "label": "mapping(address => bool)",
        "numberOfBytes": "32",
        "value": "t_bool"
      },
      "t_mapping(t_address,t_mapping(t_address,t_bool))": {
        "encoding": "mapping",
        "key": "t_address",
        "label": "mapping(address => mapping(address => bool))",
        "numberOfBytes": "32",
        "value": "t_mapping(t_address,t_bool)"
      },
      "t_mapping(t_address,t_mapping(t_uint256,t_uint256))": {
        "encoding": "mapping",
        "key": "t_address",
        "label": "mapping(address => mapping(uint256 => uint256))",
        "numberOfBytes": "32",
        "value": "t_mapping(t_uint256,t_uint256)"
      },
      "t_mapping(t_address,t_uint256)": {
        "encoding": "mapping",
        "key": "t_address",
        "label": "mapping(address => uint256)",
        "numberOfBytes": "32",
        "value": "t_uint256"
      },
      "t_mapping(t_uint256,t_address)": {
        "encoding": "mapping",
        "key": "t_uint256",
        "label": "mapping(uint256 => address)",
        "numberOfBytes": "32",
        "value": "t_address"
      },
      "t_mapping(t_uint256,t_uint256)": {
        "encoding": "mapping",
        "key": "t_uint256",
        "label": "mapping(uint256 => uint256)",
        "numberOfBytes": "32",
        "value": "t_uint256"
      },
      "t_string_storage": {
        "encoding": "bytes",
        "label": "string",
        "numberOfBytes": "32"
      },
      "t_uint256": {
        "encoding": "inplace",
        "label": "uint256",
        "numberOfBytes": "32"
      },
      "t_uint32": {
        "encoding": "inplace",
        "label": "uint32",
        "numberOfBytes": "4"
      },
      "t_uint64": {
        "encoding": "inplace",
        "label": "uint64",
        "numberOfBytes": "8"
      },
      "t_uint8": {
        "encoding": "inplace",
        "label": "uint8",
        "numberOfBytes": "1"
      }
    }
  }
}