{
  "address": "0xC9e250A4560ad30543AEce22E247866Fb57a45e5",
  "abi": [
    {
      "anonymous": false,
      "inputs": [
        {
          "indexed": true,
          "internalType": "address",
          "name": "owner",
          "type": "address"
        },
        {
          "indexed": true,
          "internalType": "address",
          "name": "approved",
          "type": "address"
        },
        {
          "indexed": true,
          "internalType": "uint256",
          "name": "tokenId",
          "type": "uint256"
        }
      ],
      "name": "Approval",
      "type": "event"
    },
    {
      "anonymous": false,
      "inputs": [
        {
          "indexed": true,
          "internalType": "address",
          "name": "owner",
          "type": "address"
        },
        {
          "indexed": true,
          "internalType": "address",
          "name": "operator",
          "type": "address"
        },
        {
          "indexed": false,
          "internalType": "bool",
          "name": "approved",
          "type": "bool"
        }
      ],
      "name": "ApprovalForAll",
      "type": "event"
    },
    {
      "anonymous": false,
      "inputs": [
        {
          "indexed": false,
          "internalType": "uint256",
          "name": "_fromTokenId",
          "type": "uint256"
        },
        {
          "indexed": false,
          "internalType": "uint256",
          "name": "_toTokenId",
          "type": "uint256"
        }
      ],
      "name": "BatchMetadataUpdate",
      "type": "event"
    },
    {
      "anonymous": false,
      "inputs": [
        {
          "indexed": false,
          "internalType": "uint8",
          "name": "version",
          "type": "uint8"
        }
      ],
      "name": "Initialized",
      "type": "event"
    },
    {
      "anonymous": false,
      "inputs": [
        {
          "indexed": false,
          "internalType": "uint256",
          "name": "_tokenId",
          "type": "uint256"
        }
      ],
      "name": "MetadataUpdate",
      "type": "event"
    },
    {
      "anonymous": false,
      "inputs": [
        {
          "indexed": true,
          "internalType": "address",
          "name": "previousOwner",
          "type": "address"
        },
        {
          "indexed": true,
          "internalType": "address",
          "name": "newOwner",
          "type": "address"
        }
      ],
      "name": "OwnershipTransferred",
      "type": "event"
    },
    {
      "anonymous": false,
      "inputs": [
        {
          "indexed": true,
          "internalType": "address",
          "name": "from",
          "type": "address"
        },
        {
          "indexed": true,
          "internalType": "address",
          "name": "to",
          "type": "address"
        },
        {
          "indexed": true,
          "internalType": "uint256",
          "name": "tokenId",
          "type": "uint256"
        }
      ],
      "name": "Transfer",
      "type": "event"
    },
    {
      "inputs": [
        {
          "internalType": "address",
          "name": "to",
          "type": "address"
        },
        {
          "internalType": "uint256",
          "name": "tokenId",
          "type": "uint256"
        }
      ],
      "name": "approve",
      "outputs": [],
      "stateMutability": "nonpayable",
      "type": "function"
    },
    {
      "inputs": [
        {
          "internalType": "address",
          "name": "owner",
          "type": "address"
        }
      ],
      "name": "balanceOf",
      "outputs": [
        {
          "internalType": "uint256",
          "name": "",
          "type": "uint256"
        }
      ],
      "stateMutability": "view",
      "type": "function"
    },
    {
      "inputs": [],
      "name": "freeEnd",
      "outputs": [
        {
          "internalType": "uint64",
          "name": "",
          "type": "uint64"
        }
      ],
      "stateMutability": "view",
      "type": "function"
    },
    {
      "inputs": [],
      "name": "freeSold",
      "outputs": [
        {
          "internalType": "uint32",
          "name": "",
          "type": "uint32"
        }
      ],
      "stateMutability": "view",
      "type": "function"
    },
    {
      "inputs": [],
      "name": "freeStart",
      "outputs": [
        {
          "internalType": "uint64",
          "name": "",
          "type": "uint64"
        }
      ],
      "stateMutability": "view",
      "type": "function"
    },
    {
      "inputs": [],
      "name": "fundingEnd",
      "outputs": [
        {
          "internalType": "uint64",
          "name": "",
          "type": "uint64"
        }
      ],
      "stateMutability": "view",
      "type": "function"
    },
    {
      "inputs": [],
      "name": "fundingPhase",
      "outputs": [
        {
          "internalType": "uint8",
          "name": "",
          "type": "uint8"
        }
      ],
      "stateMutability": "view",
      "type": "function"
    },
    {
      "inputs": [],
      "name": "fundingStart",
      "outputs": [
        {
          "internalType": "uint64",
          "name": "",
          "type": "uint64"
        }
      ],
      "stateMutability": "view",
      "type": "function"
    },
    {
      "inputs": [
        {
          "internalType": "uint256",
          "name": "tokenId",
          "type": "uint256"
        }
      ],
      "name": "getApproved",
      "outputs": [
        {
          "internalType": "address",
          "name": "",
          "type": "address"
        }
      ],
      "stateMutability": "view",
      "type": "function"
    },
    {
      "inputs": [],
      "name": "getPhase",
      "outputs": [
        {
          "internalType": "enum Mossy.Phase",
          "name": "",
          "type": "uint8"
        }
      ],
      "stateMutability": "view",
      "type": "function"
    },
    {
      "inputs": [
        {
          "internalType": "address",
          "name": "admin",
          "type": "address"
        },
        {
          "internalType": "uint64",
          "name": "_freeStart",
          "type": "uint64"
        },
        {
          "internalType": "uint64",
          "name": "_freeEnd",
          "type": "uint64"
        },
        {
          "internalType": "uint64",
          "name": "_fundingStart",
          "type": "uint64"
        },
        {
          "internalType": "uint64",
          "name": "_fundingEnd",
          "type": "uint64"
        }
      ],
      "name": "initialize",
      "outputs": [],
      "stateMutability": "nonpayable",
      "type": "function"
    },
    {
      "inputs": [
        {
          "internalType": "address",
          "name": "owner",
          "type": "address"
        },
        {
          "internalType": "address",
          "name": "operator",
          "type": "address"
        }
      ],
      "name": "isApprovedForAll",
      "outputs": [
        {
          "internalType": "bool",
          "name": "",
          "type": "bool"
        }
      ],
      "stateMutability": "view",
      "type": "function"
    },
    {
      "inputs": [],
      "name": "maxFree",
      "outputs": [
        {
          "internalType": "uint32",
          "name": "",
          "type": "uint32"
        }
      ],
      "stateMutability": "view",
      "type": "function"
    },
    {
      "inputs": [],
      "name": "maxPhaseOne",
      "outputs": [
        {
          "internalType": "uint32",
          "name": "",
          "type": "uint32"
        }
      ],
      "stateMutability": "view",
      "type": "function"
    },
    {
      "inputs": [],
      "name": "maxPhaseTwo",
      "outputs": [
        {
          "internalType": "uint32",
          "name": "",
          "type": "uint32"
        }
      ],
      "stateMutability": "view",
      "type": "function"
    },
    {
      "inputs": [],
      "name": "mint",
      "outputs": [],
      "stateMutability": "payable",
      "type": "function"
    },
    {
      "inputs": [],
      "name": "name",
      "outputs": [
        {
          "internalType": "string",
          "name": "",
          "type": "string"
        }
      ],
      "stateMutability": "view",
      "type": "function"
    },
    {
      "inputs": [
        {
          "internalType": "contract IMossyDescriptor",
          "name": "_descriptor",
          "type": "address"
        }
      ],
      "name": "open",
      "outputs": [],
      "stateMutability": "nonpayable",
      "type": "function"
    },
    {
      "inputs": [],
      "name": "owner",
      "outputs": [
        {
          "internalType": "address",
          "name": "",
          "type": "address"
        }
      ],
      "stateMutability": "view",
      "type": "function"
    },
    {
      "inputs": [
        {
          "internalType": "uint256",
          "name": "tokenId",
          "type": "uint256"
        }
      ],
      "name": "ownerOf",
      "outputs": [
        {
          "internalType": "address",
          "name": "",
          "type": "address"
        }
      ],
      "stateMutability": "view",
      "type": "function"
    },
    {
      "inputs": [],
      "name": "phaseOneFee",
      "outputs": [
        {
          "internalType": "uint64",
          "name": "",
          "type": "uint64"
        }
      ],
      "stateMutability": "view",
      "type": "function"
    },
    {
      "inputs": [],
      "name": "phaseOneSold",
      "outputs": [
        {
          "internalType": "uint32",
          "name": "",
          "type": "uint32"
        }
      ],
      "stateMutability": "view",
      "type": "function"
    },
    {
      "inputs": [],
      "name": "phaseTwoFee",
      "outputs": [
        {
          "internalType": "uint64",
          "name": "",
          "type": "uint64"
        }
      ],
      "stateMutability": "view",
      "type": "function"
    },
    {
      "inputs": [],
      "name": "phaseTwoSold",
      "outputs": [
        {
          "internalType": "uint32",
          "name": "",
          "type": "uint32"
        }
      ],
      "stateMutability": "view",
      "type": "function"
    },
    {
      "inputs": [],
      "name": "renounceOwnership",
      "outputs": [],
      "stateMutability": "nonpayable",
      "type": "function"
    },
    {
      "inputs": [
        {
          "internalType": "address",
          "name": "from",
          "type": "address"
        },
        {
          "internalType": "address",
          "name": "to",
          "type": "address"
        },
        {
          "internalType": "uint256",
          "name": "tokenId",
          "type": "uint256"
        }
      ],
      "name": "safeTransferFrom",
      "outputs": [],
      "stateMutability": "nonpayable",
      "type": "function"
    },
    {
      "inputs": [
        {
          "internalType": "address",
          "name": "from",
          "type": "address"
        },
        {
          "internalType": "address",
          "name": "to",
          "type": "address"
        },
        {
          "internalType": "uint256",
          "name": "tokenId",
          "type": "uint256"
        },
        {
          "internalType": "bytes",
          "name": "data",
          "type": "bytes"
        }
      ],
      "name": "safeTransferFrom",
      "outputs": [],
      "stateMutability": "nonpayable",
      "type": "function"
    },
    {
      "inputs": [
        {
          "internalType": "address",
          "name": "operator",
          "type": "address"
        },
        {
          "internalType": "bool",
          "name": "approved",
          "type": "bool"
        }
      ],
      "name": "setApprovalForAll",
      "outputs": [],
      "stateMutability": "nonpayable",
      "type": "function"
    },
    {
      "inputs": [
        {
          "internalType": "bytes4",
          "name": "interfaceId",
          "type": "bytes4"
        }
      ],
      "name": "supportsInterface",
      "outputs": [
        {
          "internalType": "bool",
          "name": "",
          "type": "bool"
        }
      ],
      "stateMutability": "view",
      "type": "function"
    },
    {
      "inputs": [],
      "name": "symbol",
      "outputs": [
        {
          "internalType": "string",
          "name": "",
          "type": "string"
        }
      ],
      "stateMutability": "view",
      "type": "function"
    },
    {
      "inputs": [
        {
          "internalType": "uint256",
          "name": "",
          "type": "uint256"
        }
      ],
      "name": "token2Metas",
      "outputs": [
        {
          "internalType": "uint256",
          "name": "",
          "type": "uint256"
        }
      ],
      "stateMutability": "view",
      "type": "function"
    },
    {
      "inputs": [
        {
          "internalType": "uint256",
          "name": "index",
          "type": "uint256"
        }
      ],
      "name": "tokenByIndex",
      "outputs": [
        {
          "internalType": "uint256",
          "name": "",
          "type": "uint256"
        }
      ],
      "stateMutability": "view",
      "type": "function"
    },
    {
      "inputs": [
        {
          "internalType": "address",
          "name": "owner",
          "type": "address"
        },
        {
          "internalType": "uint256",
          "name": "index",
          "type": "uint256"
        }
      ],
      "name": "tokenOfOwnerByIndex",
      "outputs": [
        {
          "internalType": "uint256",
          "name": "",
          "type": "uint256"
        }
      ],
      "stateMutability": "view",
      "type": "function"
    },
    {
      "inputs": [
        {
          "internalType": "uint256",
          "name": "id",
          "type": "uint256"
        }
      ],
      "name": "tokenURI",
      "outputs": [
        {
          "internalType": "string",
          "name": "",
          "type": "string"
        }
      ],
      "stateMutability": "view",
      "type": "function"
    },
    {
      "inputs": [],
      "name": "totalSupply",
      "outputs": [
        {
          "internalType": "uint256",
          "name": "",
          "type": "uint256"
        }
      ],
      "stateMutability": "view",
      "type": "function"
    },
    {
      "inputs": [
        {
          "internalType": "address",
          "name": "from",
          "type": "address"
        },
        {
          "internalType": "address",
          "name": "to",
          "type": "address"
        },
        {
          "internalType": "uint256",
          "name": "tokenId",
          "type": "uint256"
        }
      ],
      "name": "transferFrom",
      "outputs": [],
      "stateMutability": "nonpayable",
      "type": "function"
    },
    {
      "inputs": [
        {
          "internalType": "address",
          "name": "newOwner",
          "type": "address"
        }
      ],
      "name": "transferOwnership",
      "outputs": [],
      "stateMutability": "nonpayable",
      "type": "function"
    },
    {
      "inputs": [
        {
          "internalType": "uint64",
          "name": "_freeStart",
          "type": "uint64"
        },
        {
          "internalType": "uint64",
          "name": "_freeEnd",
          "type": "uint64"
        },
        {
          "internalType": "uint64",
          "name": "_fundingStart",
          "type": "uint64"
        },
        {
          "internalType": "uint64",
          "name": "_fundingEnd",
          "type": "uint64"
        }
      ],
      "name": "updateTime",
      "outputs": [],
      "stateMutability": "nonpayable",
      "type": "function"
    },
    {
      "inputs": [
        {
          "internalType": "address[]",
          "name": "list",
          "type": "address[]"
        },
        {
          "internalType": "bool",
          "name": "enabled",
          "type": "bool"
        }
      ],
      "name": "updateWL",
      "outputs": [],
      "stateMutability": "nonpayable",
      "type": "function"
    },
    {
      "inputs": [
        {
          "internalType": "contract IERC20",
          "name": "coin",
          "type": "address"
        },
        {
          "internalType": "address",
          "name": "to",
          "type": "address"
        },
        {
          "internalType": "uint256",
          "name": "value",
          "type": "uint256"
        }
      ],
      "name": "withdraw",
      "outputs": [],
      "stateMutability": "nonpayable",
      "type": "function"
    },
    {
      "stateMutability": "payable",
      "type": "receive"
    }
  ],
  "transactionHash": "0x11b7e7349571887e33d7390251cd6ee402de5f0f93ba50bafe4f9c496270fe39",
  "args": [],
  "numDeployments": 2,
  "solcInputHash": "cafe8d27f28dfaf36016c5e0ca70573d",
  "bytecode": "0x608060405261012e805463ffffffff1916600517905534801561002157600080fd5b50613727806100316000396000f3fe6080604052600436106102bf5760003560e01c806375aa830d1161016e578063b88d4fde116100cb578063c87b56dd1161007f578063e985e9c511610064578063e985e9c5146107cc578063eced028014610815578063f2fde38b1461083757600080fd5b8063c87b56dd1461078c578063d9caed12146107ac57600080fd5b8063baf3815a116100b0578063baf3815a14610719578063bcde18f114610739578063bce5d7ec1461076257600080fd5b8063b88d4fde146106d9578063b95460f8146106f957600080fd5b806395d89b4111610122578063a37d6e0f11610107578063a37d6e0f14610663578063a744a7a614610689578063af406fba146106b757600080fd5b806395d89b411461062e578063a22cb4651461064357600080fd5b80638431f2ab116101535780638431f2ab146105d257806388ed2c7d146105f05780638da5cb5b1461061057600080fd5b806375aa830d1461059c57806376e8fd94146105b757600080fd5b80632f745c591161021c57806350769351116101d05780636352211e116101b55780636352211e1461054757806370a0823114610567578063715018a61461058757600080fd5b80635076935114610504578063614cb5971461053257600080fd5b806347ec08501161020157806347ec08501461048c578063485a68a3146104ba5780634f6ccce7146104e457600080fd5b80632f745c591461044c57806342842e0e1461046c57600080fd5b806313e094531161027357806318160ddd1161025857806318160ddd146103e657806320e3b5ac1461040557806323b872dd1461042c57600080fd5b806313e094531461038457806313e7323e146103a457600080fd5b8063081812fc116102a4578063081812fc14610322578063095ea7b31461035a5780631249c58b1461037c57600080fd5b806301ffc9a7146102cb57806306fdde031461030057600080fd5b366102c657005b600080fd5b3480156102d757600080fd5b506102eb6102e6366004612e48565b610857565b60405190151581526020015b60405180910390f35b34801561030c57600080fd5b506103156108b3565b6040516102f79190612ebc565b34801561032e57600080fd5b5061034261033d366004612ecf565b610945565b6040516001600160a01b0390911681526020016102f7565b34801561036657600080fd5b5061037a610375366004612efd565b61096c565b005b61037a610aa2565b34801561039057600080fd5b5061037a61039f366004612f46565b610d28565b3480156103b057600080fd5b5061012d546103cd90600160c01b900467ffffffffffffffff1681565b60405167ffffffffffffffff90911681526020016102f7565b3480156103f257600080fd5b506099545b6040519081526020016102f7565b34801561041157600080fd5b5061041a610f67565b60405160ff90911681526020016102f7565b34801561043857600080fd5b5061037a610447366004612fad565b610fe4565b34801561045857600080fd5b506103f7610467366004612efd565b611057565b34801561047857600080fd5b5061037a610487366004612fad565b6110ff565b34801561049857600080fd5b5061012d546103cd9068010000000000000000900467ffffffffffffffff1681565b3480156104c657600080fd5b506104cf600a81565b60405163ffffffff90911681526020016102f7565b3480156104f057600080fd5b506103f76104ff366004612ecf565b611172565b34801561051057600080fd5b5061012e546104cf906c01000000000000000000000000900463ffffffff1681565b34801561053e57600080fd5b506104cf600581565b34801561055357600080fd5b50610342610562366004612ecf565b611216565b34801561057357600080fd5b506103f7610582366004612fee565b61127b565b34801561059357600080fd5b5061037a611315565b3480156105a857600080fd5b506103cd662386f26fc1000081565b3480156105c357600080fd5b506103cd6611c37937e0800081565b3480156105de57600080fd5b5061012e546104cf9063ffffffff1681565b3480156105fc57600080fd5b5061037a61060b36600461306b565b611327565b34801561061c57600080fd5b5060c9546001600160a01b0316610342565b34801561063a57600080fd5b50610315611397565b34801561064f57600080fd5b5061037a61065e36600461312f565b6113a6565b34801561066f57600080fd5b5061012e546104cf90640100000000900463ffffffff1681565b34801561069557600080fd5b506103f76106a4366004612ecf565b6101306020526000908152604090205481565b3480156106c357600080fd5b5061012d546103cd9067ffffffffffffffff1681565b3480156106e557600080fd5b5061037a6106f4366004613190565b6113b5565b34801561070557600080fd5b5061037a610714366004612fee565b61142f565b34801561072557600080fd5b5061037a61073436600461323f565b611515565b34801561074557600080fd5b5061012d546103cd90600160801b900467ffffffffffffffff1681565b34801561076e57600080fd5b5061012e546104cf9068010000000000000000900463ffffffff1681565b34801561079857600080fd5b506103156107a7366004612ecf565b6115b6565b3480156107b857600080fd5b5061037a6107c7366004612fad565b611770565b3480156107d857600080fd5b506102eb6107e7366004613293565b6001600160a01b039182166000908152606a6020908152604080832093909416825291909152205460ff1690565b34801561082157600080fd5b5061082a611852565b6040516102f791906132d7565b34801561084357600080fd5b5061037a610852366004612fee565b6118e1565b60007fffffffff0000000000000000000000000000000000000000000000000000000082167f780e9d630000000000000000000000000000000000000000000000000000000014806108ad57506108ad82611971565b92915050565b6060606580546108c2906132ff565b80601f01602080910402602001604051908101604052809291908181526020018280546108ee906132ff565b801561093b5780601f106109105761010080835404028352916020019161093b565b820191906000526020600020905b81548152906001019060200180831161091e57829003601f168201915b5050505050905090565b600061095082611a54565b506000908152606960205260409020546001600160a01b031690565b600061097782611216565b9050806001600160a01b0316836001600160a01b031603610a055760405162461bcd60e51b815260206004820152602160248201527f4552433732313a20617070726f76616c20746f2063757272656e74206f776e6560448201527f720000000000000000000000000000000000000000000000000000000000000060648201526084015b60405180910390fd5b336001600160a01b0382161480610a215750610a2181336107e7565b610a935760405162461bcd60e51b815260206004820152603d60248201527f4552433732313a20617070726f76652063616c6c6572206973206e6f7420746f60448201527f6b656e206f776e6572206f7220617070726f76656420666f7220616c6c00000060648201526084016109fc565b610a9d8383611ab8565b505050565b610aab3361127b565b15610af85760405162461bcd60e51b815260206004820152601b60248201527f4f6e652063616e206f6e6c7920686f6c64206f6e6520746f6b656e000000000060448201526064016109fc565b610b00611b33565b6000610b0a611852565b90506000816004811115610b2057610b206132c1565b03610b6d5760405162461bcd60e51b815260206004820152601860248201527f46726565206d696e74696e67206973206e6f74206f70656e000000000000000060448201526064016109fc565b6002816004811115610b8157610b816132c1565b03610bce5760405162461bcd60e51b815260206004820152601b60248201527f46756e64696e67206d696e74696e67206973206e6f74206f70656e000000000060448201526064016109fc565b6004816004811115610be257610be26132c1565b03610c2f5760405162461bcd60e51b815260206004820152601160248201527f4d696e74696e6720697320636c6f73656400000000000000000000000000000060448201526064016109fc565b336001826004811115610c4457610c446132c1565b03610cbb576001600160a01b0381166000908152610131602052604090205460ff16610cb25760405162461bcd60e51b815260206004820152601b60248201527f43616c6c6572206973206e6f7420696e207768697465206c697374000000000060448201526064016109fc565b610cbb81611b8c565b6003826004811115610ccf57610ccf6132c1565b03610cdd57610cdd81611ca5565b61012e8054600160801b900463ffffffff16906010610cfb8361334f565b91906101000a81548163ffffffff021916908363ffffffff160217905550505050610d26600160fb55565b565b600054610100900460ff1615808015610d485750600054600160ff909116105b80610d625750303b158015610d62575060005460ff166001145b610dd45760405162461bcd60e51b815260206004820152602e60248201527f496e697469616c697a61626c653a20636f6e747261637420697320616c72656160448201527f647920696e697469616c697a656400000000000000000000000000000000000060648201526084016109fc565b6000805460ff191660011790558015610df7576000805461ff0019166101001790555b428567ffffffffffffffff161015610e0e57600080fd5b8367ffffffffffffffff168567ffffffffffffffff1610610e2e57600080fd5b8267ffffffffffffffff168467ffffffffffffffff161115610e4f57600080fd5b8167ffffffffffffffff168367ffffffffffffffff1610610e6f57600080fd5b610e7886611f96565b61012e8054610dac63ffffffff1990911617905561012d805467ffffffffffffffff8781167fffffffffffffffffffffffffffffffff00000000000000000000000000000000909216919091176801000000000000000087831602176fffffffffffffffffffffffffffffffff16600160801b8683160277ffffffffffffffffffffffffffffffffffffffffffffffff1617600160c01b918516919091021790558015610f5f576000805461ff0019169055604051600181527f7f26b83ff96e1f2b6a682f133852f6798a09c465da95921460cefb38474024989060200160405180910390a15b505050505050565b60006003610f73611852565b6004811115610f8457610f846132c1565b14610f8f5750600090565b61012e5463ffffffff80821668010000000000000000909204161015610fb55750600190565b61012e5460056c0100000000000000000000000090910463ffffffff161015610fde5750600290565b50600390565b6004610fee611852565b6004811115610fff57610fff6132c1565b1461104c5760405162461bcd60e51b815260206004820152601560248201527f4d696e74696e67206973206e6f7420656e64696e67000000000000000000000060448201526064016109fc565b610a9d838383611ff5565b60006110628361127b565b82106110d65760405162461bcd60e51b815260206004820152602b60248201527f455243373231456e756d657261626c653a206f776e657220696e646578206f7560448201527f74206f6620626f756e647300000000000000000000000000000000000000000060648201526084016109fc565b506001600160a01b03919091166000908152609760209081526040808320938352929052205490565b6004611109611852565b600481111561111a5761111a6132c1565b146111675760405162461bcd60e51b815260206004820152601560248201527f4d696e74696e67206973206e6f7420656e64696e67000000000000000000000060448201526064016109fc565b610a9d83838361207c565b600061117d60995490565b82106111f15760405162461bcd60e51b815260206004820152602c60248201527f455243373231456e756d657261626c653a20676c6f62616c20696e646578206f60448201527f7574206f6620626f756e6473000000000000000000000000000000000000000060648201526084016109fc565b6099828154811061120457611204613372565b90600052602060002001549050919050565b6000818152606760205260408120546001600160a01b0316806108ad5760405162461bcd60e51b815260206004820152601860248201527f4552433732313a20696e76616c696420746f6b656e204944000000000000000060448201526064016109fc565b60006001600160a01b0382166112f95760405162461bcd60e51b815260206004820152602960248201527f4552433732313a2061646472657373207a65726f206973206e6f74206120766160448201527f6c6964206f776e6572000000000000000000000000000000000000000000000060648201526084016109fc565b506001600160a01b031660009081526068602052604090205490565b61131d612097565b610d266000611f96565b61132f612097565b60005b8251811015610a9d5781610131600085848151811061135357611353613372565b6020908102919091018101516001600160a01b03168252810191909152604001600020805460ff19169115159190911790558061138f81613388565b915050611332565b6060606680546108c2906132ff565b6113b13383836120f1565b5050565b60046113bf611852565b60048111156113d0576113d06132c1565b1461141d5760405162461bcd60e51b815260206004820152601560248201527f4d696e74696e67206973206e6f7420656e64696e67000000000000000000000060448201526064016109fc565b611429848484846121bf565b50505050565b611437612097565b6004611441611852565b6004811115611452576114526132c1565b1461149f5760405162461bcd60e51b815260206004820152601460248201527f4d696e74696e67206973206e6f7420656e64656400000000000000000000000060448201526064016109fc565b61012f805473ffffffffffffffffffffffffffffffffffffffff19166001600160a01b03831617905561012e546040805160008152600160801b90920463ffffffff1660208301527f6bd5c950a8d8df17f772f5af37cb3655737899cbf903264b9795592da439661c910160405180910390a150565b61151d612097565b61012d805467ffffffffffffffff9586167fffffffffffffffffffffffffffffffff00000000000000000000000000000000909116176801000000000000000094861694909402939093176fffffffffffffffffffffffffffffffff16600160801b9285169290920277ffffffffffffffffffffffffffffffffffffffffffffffff1691909117600160c01b9190931602919091179055565b606060006115c2611852565b905060048160048111156115d8576115d86132c1565b146115fd576040518060800160405280604281526020016136b0604291399392505050565b61012f546001600160a01b03166116565760405162461bcd60e51b815260206004820152601860248201527f4d6f7373793a204e6f204e46542064657363726970746f72000000000000000060448201526064016109fc565b600061166184612247565b60405160200161167191906133a2565b60408051808303601f1901815282825261012f546000888152610130602052928320547f529ca207000000000000000000000000000000000000000000000000000000008552600485015290935090916001600160a01b039091169063529ca20790602401600060405180830381865afa1580156116f3573d6000803e3d6000fd5b505050506040513d6000823e601f3d908101601f1916820160405261171b91908101906133e7565b905060008283836040516020016117349392919061345e565b6040516020818303038152906040529050806040516020016117569190613548565b604051602081830303815290604052945050505050919050565b611778612097565b6001600160a01b0383166117c657610a9d82826040518060400160405280601b81526020017f7769746864726177206e617469766520636f696e206661696c656400000000008152506122e7565b6040517fa9059cbb0000000000000000000000000000000000000000000000000000000081526001600160a01b0383811660048301526024820183905284169063a9059cbb906044016020604051808303816000875af115801561182e573d6000803e3d6000fd5b505050506040513d601f19601f82011682018060405250810190611429919061358d565b61012d5460009067ffffffffffffffff164210156118705750600090565b61012d5468010000000000000000900467ffffffffffffffff164210156118975750600190565b61012d54600160801b900467ffffffffffffffff164210156118b95750600290565b61012d54600160c01b900467ffffffffffffffff164210156118db5750600390565b50600490565b6118e9612097565b6001600160a01b0381166119655760405162461bcd60e51b815260206004820152602660248201527f4f776e61626c653a206e6577206f776e657220697320746865207a65726f206160448201527f646472657373000000000000000000000000000000000000000000000000000060648201526084016109fc565b61196e81611f96565b50565b60007fffffffff0000000000000000000000000000000000000000000000000000000082167f80ac58cd000000000000000000000000000000000000000000000000000000001480611a0457507fffffffff0000000000000000000000000000000000000000000000000000000082167f5b5e139f00000000000000000000000000000000000000000000000000000000145b806108ad57507f01ffc9a7000000000000000000000000000000000000000000000000000000007fffffffff000000000000000000000000000000000000000000000000000000008316146108ad565b6000818152606760205260409020546001600160a01b031661196e5760405162461bcd60e51b815260206004820152601860248201527f4552433732313a20696e76616c696420746f6b656e204944000000000000000060448201526064016109fc565b6000818152606960205260409020805473ffffffffffffffffffffffffffffffffffffffff19166001600160a01b0384169081179091558190611afa82611216565b6001600160a01b03167f8c5be1e5ebec7d5bd14f71427d1e84f3dd0314c0f7b2291e5b200ac8c7c3b92560405160405180910390a45050565b600260fb5403611b855760405162461bcd60e51b815260206004820152601f60248201527f5265656e7472616e637947756172643a207265656e7472616e742063616c6c0060448201526064016109fc565b600260fb55565b611b958161127b565b15611be25760405162461bcd60e51b815260206004820152601660248201527f4f6e652063616e20686f6c64206f6e6520746f6b656e0000000000000000000060448201526064016109fc565b61012e54600a64010000000090910463ffffffff1610611c445760405162461bcd60e51b815260206004820152601e60248201527f46726565206d696e74696e6720686173206265656e20736f6c64206f7574000060448201526064016109fc565b61012e8054640100000000900463ffffffff16906004611c638361334f565b91906101000a81548163ffffffff021916908363ffffffff1602179055505061196e8161012e60109054906101000a900463ffffffff1663ffffffff16612364565b61012e5474010000000000000000000000000000000000000000900460ff16611d4f5761012e80547fffffffffffffffffffffff00ffffffffffffffffffffffffffffffffffffffff811674010000000000000000000000000000000000000000179182905563ffffffff640100000000909204821691611d2991600a91166135aa565b611d3391906135ce565b61012e805463ffffffff191663ffffffff929092169190911790555b61012e5463ffffffff80821668010000000000000000909204161015611e4f576611c37937e08000341015611dc65760405162461bcd60e51b815260206004820152601a60248201527f696e73756666696369656e742066756e647320746f206d696e7400000000000060448201526064016109fc565b6611c37937e08000341115611e0857611e0881611dea6611c37937e08000346135eb565b60405180606001604052806021815260200161366e602191396122e7565b61012e805468010000000000000000900463ffffffff16906008611e2b8361334f565b91906101000a81548163ffffffff021916908363ffffffff16021790555050611f7a565b61012e5460056c0100000000000000000000000090910463ffffffff161015611f3257662386f26fc10000341015611ec95760405162461bcd60e51b815260206004820152601a60248201527f696e73756666696369656e742066756e647320746f206d696e7400000000000060448201526064016109fc565b662386f26fc10000341115611f0b57611f0b81611eed662386f26fc10000346135eb565b60405180606001604052806021815260200161368f602191396122e7565b61012e80546c01000000000000000000000000900463ffffffff1690600c611e2b8361334f565b60405162461bcd60e51b815260206004820152601360248201527f416c6c20746f6b656e7320736f6c64206f75740000000000000000000000000060448201526064016109fc565b61012e5461196e908290600160801b900463ffffffff16612364565b60c980546001600160a01b0383811673ffffffffffffffffffffffffffffffffffffffff19831681179093556040519116919082907f8be0079c531659141344cd1fd0a4f28419497f9722a3daafe3b4186f6b6457e090600090a35050565b611fff33826123e1565b6120715760405162461bcd60e51b815260206004820152602d60248201527f4552433732313a2063616c6c6572206973206e6f7420746f6b656e206f776e6560448201527f72206f7220617070726f7665640000000000000000000000000000000000000060648201526084016109fc565b610a9d838383612460565b610a9d838383604051806020016040528060008152506113b5565b60c9546001600160a01b03163314610d265760405162461bcd60e51b815260206004820181905260248201527f4f776e61626c653a2063616c6c6572206973206e6f7420746865206f776e657260448201526064016109fc565b816001600160a01b0316836001600160a01b0316036121525760405162461bcd60e51b815260206004820152601960248201527f4552433732313a20617070726f766520746f2063616c6c65720000000000000060448201526064016109fc565b6001600160a01b038381166000818152606a6020908152604080832094871680845294825291829020805460ff191686151590811790915591519182527f17307eab39ab6107e8899845ad3d59bd9653f200f220920489ca2b5937696c31910160405180910390a3505050565b6121c933836123e1565b61223b5760405162461bcd60e51b815260206004820152602d60248201527f4552433732313a2063616c6c6572206973206e6f7420746f6b656e206f776e6560448201527f72206f7220617070726f7665640000000000000000000000000000000000000060648201526084016109fc565b611429848484846126a3565b606060006122548361272c565b600101905060008167ffffffffffffffff8111156122745761227461300b565b6040519080825280601f01601f19166020018201604052801561229e576020820181803683370190505b5090508181016020015b600019017f3031323334353637383961626364656600000000000000000000000000000000600a86061a8153600a85049450846122a857509392505050565b6000836001600160a01b03168360405160006040518083038185875af1925050503d8060008114612334576040519150601f19603f3d011682016040523d82523d6000602084013e612339565b606091505b5050905080829061235d5760405162461bcd60e51b81526004016109fc9190612ebc565b5050505050565b60408051606084901b7fffffffffffffffffffffffffffffffffffffffff00000000000000000000000016602080830191909152603482018490524360548084019190915283518084039091018152607490920190925280519101206000906000838152610130602052604090208190559050610a9d838361280e565b6000806123ed83611216565b9050806001600160a01b0316846001600160a01b0316148061243457506001600160a01b038082166000908152606a602090815260408083209388168352929052205460ff165b806124585750836001600160a01b031661244d84610945565b6001600160a01b0316145b949350505050565b826001600160a01b031661247382611216565b6001600160a01b0316146124ef5760405162461bcd60e51b815260206004820152602560248201527f4552433732313a207472616e736665722066726f6d20696e636f72726563742060448201527f6f776e657200000000000000000000000000000000000000000000000000000060648201526084016109fc565b6001600160a01b03821661256a5760405162461bcd60e51b8152602060048201526024808201527f4552433732313a207472616e7366657220746f20746865207a65726f2061646460448201527f726573730000000000000000000000000000000000000000000000000000000060648201526084016109fc565b61257783838360016129b4565b826001600160a01b031661258a82611216565b6001600160a01b0316146126065760405162461bcd60e51b815260206004820152602560248201527f4552433732313a207472616e736665722066726f6d20696e636f72726563742060448201527f6f776e657200000000000000000000000000000000000000000000000000000060648201526084016109fc565b6000818152606960209081526040808320805473ffffffffffffffffffffffffffffffffffffffff199081169091556001600160a01b0387811680865260688552838620805460001901905590871680865283862080546001019055868652606790945282852080549092168417909155905184937fddf252ad1be2c89b69c2b068fc378daa952ba7f163c4a11628f55a4df523b3ef91a4505050565b6126ae848484612460565b6126ba84848484612ae9565b6114295760405162461bcd60e51b815260206004820152603260248201527f4552433732313a207472616e7366657220746f206e6f6e20455243373231526560448201527f63656976657220696d706c656d656e746572000000000000000000000000000060648201526084016109fc565b6000807a184f03e93ff9f4daa797ed6e38ed64bf6a1f0100000000000000008310612775577a184f03e93ff9f4daa797ed6e38ed64bf6a1f010000000000000000830492506040015b6d04ee2d6d415b85acef810000000083106127a1576d04ee2d6d415b85acef8100000000830492506020015b662386f26fc1000083106127bf57662386f26fc10000830492506010015b6305f5e10083106127d7576305f5e100830492506008015b61271083106127eb57612710830492506004015b606483106127fd576064830492506002015b600a83106108ad5760010192915050565b6001600160a01b0382166128645760405162461bcd60e51b815260206004820181905260248201527f4552433732313a206d696e7420746f20746865207a65726f206164647265737360448201526064016109fc565b6000818152606760205260409020546001600160a01b0316156128c95760405162461bcd60e51b815260206004820152601c60248201527f4552433732313a20746f6b656e20616c7265616479206d696e7465640000000060448201526064016109fc565b6128d76000838360016129b4565b6000818152606760205260409020546001600160a01b03161561293c5760405162461bcd60e51b815260206004820152601c60248201527f4552433732313a20746f6b656e20616c7265616479206d696e7465640000000060448201526064016109fc565b6001600160a01b0382166000818152606860209081526040808320805460010190558483526067909152808220805473ffffffffffffffffffffffffffffffffffffffff19168417905551839291907fddf252ad1be2c89b69c2b068fc378daa952ba7f163c4a11628f55a4df523b3ef908290a45050565b6001811115612a2b5760405162461bcd60e51b815260206004820152603560248201527f455243373231456e756d657261626c653a20636f6e736563757469766520747260448201527f616e7366657273206e6f7420737570706f72746564000000000000000000000060648201526084016109fc565b816001600160a01b038516612a8757612a8281609980546000838152609a60205260408120829055600182018355919091527f72a152ddfb8e864297c917af52ea6c1c68aead0fee1a62673fcc7e0c94979d000155565b612aaa565b836001600160a01b0316856001600160a01b031614612aaa57612aaa8582612c8a565b6001600160a01b038416612ac657612ac181612d27565b61235d565b846001600160a01b0316846001600160a01b03161461235d5761235d8482612dd6565b60006001600160a01b0384163b15612c7f576040517f150b7a020000000000000000000000000000000000000000000000000000000081526001600160a01b0385169063150b7a0290612b469033908990889088906004016135fe565b6020604051808303816000875af1925050508015612b81575060408051601f3d908101601f19168201909252612b7e9181019061363a565b60015b612c34573d808015612baf576040519150601f19603f3d011682016040523d82523d6000602084013e612bb4565b606091505b508051600003612c2c5760405162461bcd60e51b815260206004820152603260248201527f4552433732313a207472616e7366657220746f206e6f6e20455243373231526560448201527f63656976657220696d706c656d656e746572000000000000000000000000000060648201526084016109fc565b805181602001fd5b7fffffffff00000000000000000000000000000000000000000000000000000000167f150b7a0200000000000000000000000000000000000000000000000000000000149050612458565b506001949350505050565b60006001612c978461127b565b612ca191906135eb565b600083815260986020526040902054909150808214612cf4576001600160a01b03841660009081526097602090815260408083208584528252808320548484528184208190558352609890915290208190555b5060009182526098602090815260408084208490556001600160a01b039094168352609781528383209183525290812055565b609954600090612d39906001906135eb565b6000838152609a602052604081205460998054939450909284908110612d6157612d61613372565b906000526020600020015490508060998381548110612d8257612d82613372565b6000918252602080832090910192909255828152609a90915260408082208490558582528120556099805480612dba57612dba613657565b6001900381819060005260206000200160009055905550505050565b6000612de18361127b565b6001600160a01b039093166000908152609760209081526040808320868452825280832085905593825260989052919091209190915550565b7fffffffff000000000000000000000000000000000000000000000000000000008116811461196e57600080fd5b600060208284031215612e5a57600080fd5b8135612e6581612e1a565b9392505050565b60005b83811015612e87578181015183820152602001612e6f565b50506000910152565b60008151808452612ea8816020860160208601612e6c565b601f01601f19169290920160200192915050565b602081526000612e656020830184612e90565b600060208284031215612ee157600080fd5b5035919050565b6001600160a01b038116811461196e57600080fd5b60008060408385031215612f1057600080fd5b8235612f1b81612ee8565b946020939093013593505050565b803567ffffffffffffffff81168114612f4157600080fd5b919050565b600080600080600060a08688031215612f5e57600080fd5b8535612f6981612ee8565b9450612f7760208701612f29565b9350612f8560408701612f29565b9250612f9360608701612f29565b9150612fa160808701612f29565b90509295509295909350565b600080600060608486031215612fc257600080fd5b8335612fcd81612ee8565b92506020840135612fdd81612ee8565b929592945050506040919091013590565b60006020828403121561300057600080fd5b8135612e6581612ee8565b634e487b7160e01b600052604160045260246000fd5b604051601f8201601f1916810167ffffffffffffffff8111828210171561304a5761304a61300b565b604052919050565b801515811461196e57600080fd5b8035612f4181613052565b6000806040838503121561307e57600080fd5b823567ffffffffffffffff8082111561309657600080fd5b818501915085601f8301126130aa57600080fd5b81356020828211156130be576130be61300b565b8160051b92506130cf818401613021565b82815292840181019281810190898511156130e957600080fd5b948201945b84861015613113578535935061310384612ee8565b83825294820194908201906130ee565b96506131229050878201613060565b9450505050509250929050565b6000806040838503121561314257600080fd5b823561314d81612ee8565b9150602083013561315d81613052565b809150509250929050565b600067ffffffffffffffff8211156131825761318261300b565b50601f01601f191660200190565b600080600080608085870312156131a657600080fd5b84356131b181612ee8565b935060208501356131c181612ee8565b925060408501359150606085013567ffffffffffffffff8111156131e457600080fd5b8501601f810187136131f557600080fd5b803561320861320382613168565b613021565b81815288602083850101111561321d57600080fd5b8160208401602083013760006020838301015280935050505092959194509250565b6000806000806080858703121561325557600080fd5b61325e85612f29565b935061326c60208601612f29565b925061327a60408601612f29565b915061328860608601612f29565b905092959194509250565b600080604083850312156132a657600080fd5b82356132b181612ee8565b9150602083013561315d81612ee8565b634e487b7160e01b600052602160045260246000fd5b60208101600583106132f957634e487b7160e01b600052602160045260246000fd5b91905290565b600181811c9082168061331357607f821691505b60208210810361333357634e487b7160e01b600052602260045260246000fd5b50919050565b634e487b7160e01b600052601160045260246000fd5b600063ffffffff80831681810361336857613368613339565b6001019392505050565b634e487b7160e01b600052603260045260246000fd5b6000600019820361339b5761339b613339565b5060010190565b7f404d6f7373792d000000000000000000000000000000000000000000000000008152600082516133da816007850160208701612e6c565b9190910160070192915050565b6000602082840312156133f957600080fd5b815167ffffffffffffffff81111561341057600080fd5b8201601f8101841361342157600080fd5b805161342f61320382613168565b81815285602083850101111561344457600080fd5b613455826020830160208601612e6c565b95945050505050565b7f7b226e616d65223a220000000000000000000000000000000000000000000000815260008451613496816009850160208901612e6c565b7f222c226465736372697074696f6e223a2200000000000000000000000000000060099184019182015284516134d381601a840160208901612e6c565b7f222c22696d6167655f64617461223a2200000000000000000000000000000000601a9290910191820152835161351181602a840160208801612e6c565b7f227d000000000000000000000000000000000000000000000000000000000000602a9290910191820152602c0195945050505050565b7f646174613a6170706c69636174696f6e2f6a736f6e3b757466382c000000000081526000825161358081601b850160208701612e6c565b91909101601b0192915050565b60006020828403121561359f57600080fd5b8151612e6581613052565b63ffffffff8181168382160190808211156135c7576135c7613339565b5092915050565b63ffffffff8281168282160390808211156135c7576135c7613339565b818103818111156108ad576108ad613339565b60006001600160a01b038087168352808616602084015250836040830152608060608301526136306080830184612e90565b9695505050505050565b60006020828403121561364c57600080fd5b8151612e6581612e1a565b634e487b7160e01b600052603160045260246000fdfe7472616e73666572206261636b206661696c6564206174207068617365206f6e657472616e73666572206261636b206661696c65642061742070686173652074776f697066733a2f2f6261666b7265696633757a77646e3532746173673767626235697a73783670333271626d357a71687477376e3376346d6868656f6a697569697171a2646970667358221220b5a0b6a9f0524a94fd4e1eb86f8e4728f2e48870c8f3176cdce972aab475009e64736f6c63430008130033",
  "devdoc": {
    "events": {
      "Approval(address,address,uint256)": {
        "details": "Emitted when `owner` enables `approved` to manage the `tokenId` token."
      },
      "ApprovalForAll(address,address,bool)": {
        "details": "Emitted when `owner` enables or disables (`approved`) `operator` to manage all of its assets."
      },
      "BatchMetadataUpdate(uint256,uint256)": {
        "details": "This event emits when the metadata of a range of tokens is changed. So that the third-party platforms such as NFT market could timely update the images and related attributes of the NFTs."
      },
      "Initialized(uint8)": {
        "details": "Triggered when the contract has been initialized or reinitialized."
      },
      "MetadataUpdate(uint256)": {
        "details": "This event emits when the metadata of a token is changed. So that the third-party platforms such as NFT market could timely update the images and related attributes of the NFT."
      },
      "Transfer(address,address,uint256)": {
        "details": "Emitted when `tokenId` token is transferred from `from` to `to`."
      }
    },
    "kind": "dev",
    "methods": {
      "approve(address,uint256)": {
        "details": "See {IERC721-approve}."
      },
      "balanceOf(address)": {
        "details": "See {IERC721-balanceOf}."
      },
      "getApproved(uint256)": {
        "details": "See {IERC721-getApproved}."
      },
      "isApprovedForAll(address,address)": {
        "details": "See {IERC721-isApprovedForAll}."
      },
      "name()": {
        "details": "See {IERC721Metadata-name}."
      },
      "owner()": {
        "details": "Returns the address of the current owner."
      },
      "ownerOf(uint256)": {
        "details": "See {IERC721-ownerOf}."
      },
      "renounceOwnership()": {
        "details": "Leaves the contract without owner. It will not be possible to call `onlyOwner` functions. Can only be called by the current owner. NOTE: Renouncing ownership will leave the contract without an owner, thereby disabling any functionality that is only available to the owner."
      },
      "setApprovalForAll(address,bool)": {
        "details": "See {IERC721-setApprovalForAll}."
      },
      "supportsInterface(bytes4)": {
        "details": "See {IERC165-supportsInterface}."
      },
      "symbol()": {
        "details": "See {IERC721Metadata-symbol}."
      },
      "tokenByIndex(uint256)": {
        "details": "See {IERC721Enumerable-tokenByIndex}."
      },
      "tokenOfOwnerByIndex(address,uint256)": {
        "details": "See {IERC721Enumerable-tokenOfOwnerByIndex}."
      },
      "totalSupply()": {
        "details": "See {IERC721Enumerable-totalSupply}."
      },
      "transferOwnership(address)": {
        "details": "Transfers ownership of the contract to a new account (`newOwner`). Can only be called by the current owner."
      }
    },
    "version": 1
  },
  "userdoc": {
    "kind": "user",
    "methods": {},
    "version": 1
  },
  "storageLayout": {
    "storage": [
      {
        "astId": 138,
        "contract": "contracts/core/Mossy.sol:Mossy",
        "label": "_initialized",
        "offset": 0,
        "slot": "0",
        "type": "t_uint8"
      },
      {
        "astId": 141,
        "contract": "contracts/core/Mossy.sol:Mossy",
        "label": "_initializing",
        "offset": 1,
        "slot": "0",
        "type": "t_bool"
      },
      {
        "astId": 2273,
        "contract": "contracts/core/Mossy.sol:Mossy",
        "label": "__gap",
        "offset": 0,
        "slot": "1",
        "type": "t_array(t_uint256)50_storage"
      },
      {
        "astId": 2546,
        "contract": "contracts/core/Mossy.sol:Mossy",
        "label": "__gap",
        "offset": 0,
        "slot": "51",
        "type": "t_array(t_uint256)50_storage"
      },
      {
        "astId": 413,
        "contract": "contracts/core/Mossy.sol:Mossy",
        "label": "_name",
        "offset": 0,
        "slot": "101",
        "type": "t_string_storage"
      },
      {
        "astId": 415,
        "contract": "contracts/core/Mossy.sol:Mossy",
        "label": "_symbol",
        "offset": 0,
        "slot": "102",
        "type": "t_string_storage"
      },
      {
        "astId": 419,
        "contract": "contracts/core/Mossy.sol:Mossy",
        "label": "_owners",
        "offset": 0,
        "slot": "103",
        "type": "t_mapping(t_uint256,t_address)"
      },
      {
        "astId": 423,
        "contract": "contracts/core/Mossy.sol:Mossy",
        "label": "_balances",
        "offset": 0,
        "slot": "104",
        "type": "t_mapping(t_address,t_uint256)"
      },
      {
        "astId": 427,
        "contract": "contracts/core/Mossy.sol:Mossy",
        "label": "_tokenApprovals",
        "offset": 0,
        "slot": "105",
        "type": "t_mapping(t_uint256,t_address)"
      },
      {
        "astId": 433,
        "contract": "contracts/core/Mossy.sol:Mossy",
        "label": "_operatorApprovals",
        "offset": 0,
        "slot": "106",
        "type": "t_mapping(t_address,t_mapping(t_address,t_bool))"
      },
      {
        "astId": 1335,
        "contract": "contracts/core/Mossy.sol:Mossy",
        "label": "__gap",
        "offset": 0,
        "slot": "107",
        "type": "t_array(t_uint256)44_storage"
      },
      {
        "astId": 1500,
        "contract": "contracts/core/Mossy.sol:Mossy",
        "label": "_ownedTokens",
        "offset": 0,
        "slot": "151",
        "type": "t_mapping(t_address,t_mapping(t_uint256,t_uint256))"
      },
      {
        "astId": 1504,
        "contract": "contracts/core/Mossy.sol:Mossy",
        "label": "_ownedTokensIndex",
        "offset": 0,
        "slot": "152",
        "type": "t_mapping(t_uint256,t_uint256)"
      },
      {
        "astId": 1507,
        "contract": "contracts/core/Mossy.sol:Mossy",
        "label": "_allTokens",
        "offset": 0,
        "slot": "153",
        "type": "t_array(t_uint256)dyn_storage"
      },
      {
        "astId": 1511,
        "contract": "contracts/core/Mossy.sol:Mossy",
        "label": "_allTokensIndex",
        "offset": 0,
        "slot": "154",
        "type": "t_mapping(t_uint256,t_uint256)"
      },
      {
        "astId": 1843,
        "contract": "contracts/core/Mossy.sol:Mossy",
        "label": "__gap",
        "offset": 0,
        "slot": "155",
        "type": "t_array(t_uint256)46_storage"
      },
      {
        "astId": 10,
        "contract": "contracts/core/Mossy.sol:Mossy",
        "label": "_owner",
        "offset": 0,
        "slot": "201",
        "type": "t_address"
      },
      {
        "astId": 130,
        "contract": "contracts/core/Mossy.sol:Mossy",
        "label": "__gap",
        "offset": 0,
        "slot": "202",
        "type": "t_array(t_uint256)49_storage"
      },
      {
        "astId": 314,
        "contract": "contracts/core/Mossy.sol:Mossy",
        "label": "_status",
        "offset": 0,
        "slot": "251",
        "type": "t_uint256"
      },
      {
        "astId": 383,
        "contract": "contracts/core/Mossy.sol:Mossy",
        "label": "__gap",
        "offset": 0,
        "slot": "252",
        "type": "t_array(t_uint256)49_storage"
      },
      {
        "astId": 4595,
        "contract": "contracts/core/Mossy.sol:Mossy",
        "label": "freeStart",
        "offset": 0,
        "slot": "301",
        "type": "t_uint64"
      },
      {
        "astId": 4597,
        "contract": "contracts/core/Mossy.sol:Mossy",
        "label": "freeEnd",
        "offset": 8,
        "slot": "301",
        "type": "t_uint64"
      },
      {
        "astId": 4599,
        "contract": "contracts/core/Mossy.sol:Mossy",
        "label": "fundingStart",
        "offset": 16,
        "slot": "301",
        "type": "t_uint64"
      },
      {
        "astId": 4601,
        "contract": "contracts/core/Mossy.sol:Mossy",
        "label": "fundingEnd",
        "offset": 24,
        "slot": "301",
        "type": "t_uint64"
      },
      {
        "astId": 4607,
        "contract": "contracts/core/Mossy.sol:Mossy",
        "label": "maxPhaseOne",
        "offset": 0,
        "slot": "302",
        "type": "t_uint32"
      },
      {
        "astId": 4612,
        "contract": "contracts/core/Mossy.sol:Mossy",
        "label": "freeSold",
        "offset": 4,
        "slot": "302",
        "type": "t_uint32"
      },
      {
        "astId": 4614,
        "contract": "contracts/core/Mossy.sol:Mossy",
        "label": "phaseOneSold",
        "offset": 8,
        "slot": "302",
        "type": "t_uint32"
      },
      {
        "astId": 4616,
        "contract": "contracts/core/Mossy.sol:Mossy",
        "label": "phaseTwoSold",
        "offset": 12,
        "slot": "302",
        "type": "t_uint32"
      },
      {
        "astId": 4618,
        "contract": "contracts/core/Mossy.sol:Mossy",
        "label": "nonce",
        "offset": 16,
        "slot": "302",
        "type": "t_uint32"
      },
      {
        "astId": 4620,
        "contract": "contracts/core/Mossy.sol:Mossy",
        "label": "phaseUpdated",
        "offset": 20,
        "slot": "302",
        "type": "t_bool"
      },
      {
        "astId": 4629,
        "contract": "contracts/core/Mossy.sol:Mossy",
        "label": "descriptor",
        "offset": 0,
        "slot": "303",
        "type": "t_contract(IMossyDescriptor)5426"
      },
      {
        "astId": 4633,
        "contract": "contracts/core/Mossy.sol:Mossy",
        "label": "token2Metas",
        "offset": 0,
        "slot": "304",
        "type": "t_mapping(t_uint256,t_uint256)"
      },
      {
        "astId": 4637,
        "contract": "contracts/core/Mossy.sol:Mossy",
        "label": "wl",
        "offset": 0,
        "slot": "305",
        "type": "t_mapping(t_address,t_bool)"
      }
    ],
    "types": {
      "t_address": {
        "encoding": "inplace",
        "label": "address",
        "numberOfBytes": "20"
      },
      "t_array(t_uint256)44_storage": {
        "base": "t_uint256",
        "encoding": "inplace",
        "label": "uint256[44]",
        "numberOfBytes": "1408"
      },
      "t_array(t_uint256)46_storage": {
        "base": "t_uint256",
        "encoding": "inplace",
        "label": "uint256[46]",
        "numberOfBytes": "1472"
      },
      "t_array(t_uint256)49_storage": {
        "base": "t_uint256",
        "encoding": "inplace",
        "label": "uint256[49]",
        "numberOfBytes": "1568"
      },
      "t_array(t_uint256)50_storage": {
        "base": "t_uint256",
        "encoding": "inplace",
        "label": "uint256[50]",
        "numberOfBytes": "1600"
      },
      "t_array(t_uint256)dyn_storage": {
        "base": "t_uint256",
        "encoding": "dynamic_array",
        "label": "uint256[]",
        "numberOfBytes": "32"
      },
      "t_bool": {
        "encoding": "inplace",
        "label": "bool",
        "numberOfBytes": "1"
      },
      "t_contract(IMossyDescriptor)5426": {
        "encoding": "inplace",
        "label": "contract IMossyDescriptor",
        "numberOfBytes": "20"
      },
      "t_mapping(t_address,t_bool)": {
        "encoding": "mapping",
        "key": "t_address",
        "label": "mapping(address => bool)",
        "numberOfBytes": "32",
        "value": "t_bool"
      },
      "t_mapping(t_address,t_mapping(t_address,t_bool))": {
        "encoding": "mapping",
        "key": "t_address",
        "label": "mapping(address => mapping(address => bool))",
        "numberOfBytes": "32",
        "value": "t_mapping(t_address,t_bool)"
      },
      "t_mapping(t_address,t_mapping(t_uint256,t_uint256))": {
        "encoding": "mapping",
        "key": "t_address",
        "label": "mapping(address => mapping(uint256 => uint256))",
        "numberOfBytes": "32",
        "value": "t_mapping(t_uint256,t_uint256)"
      },
      "t_mapping(t_address,t_uint256)": {
        "encoding": "mapping",
        "key": "t_address",
        "label": "mapping(address => uint256)",
        "numberOfBytes": "32",
        "value": "t_uint256"
      },
      "t_mapping(t_uint256,t_address)": {
        "encoding": "mapping",
        "key": "t_uint256",
        "label": "mapping(uint256 => address)",
        "numberOfBytes": "32",
        "value": "t_address"
      },
      "t_mapping(t_uint256,t_uint256)": {
        "encoding": "mapping",
        "key": "t_uint256",
        "label": "mapping(uint256 => uint256)",
        "numberOfBytes": "32",
        "value": "t_uint256"
      },
      "t_string_storage": {
        "encoding": "bytes",
        "label": "string",
        "numberOfBytes": "32"
      },
      "t_uint256": {
        "encoding": "inplace",
        "label": "uint256",
        "numberOfBytes": "32"
      },
      "t_uint32": {
        "encoding": "inplace",
        "label": "uint32",
        "numberOfBytes": "4"
      },
      "t_uint64": {
        "encoding": "inplace",
        "label": "uint64",
        "numberOfBytes": "8"
      },
      "t_uint8": {
        "encoding": "inplace",
        "label": "uint8",
        "numberOfBytes": "1"
      }
    }
  }
}