{
  "address": "0xB7c4c9990D2234D5D6f65d6747E8C8C8706D9B59",
  "abi": [
    {
      "inputs": [
        {
          "internalType": "string",
          "name": "_rootURI",
          "type": "string"
        }
      ],
      "stateMutability": "nonpayable",
      "type": "constructor"
    },
    {
      "inputs": [
        {
          "internalType": "uint256",
          "name": "metaId",
          "type": "uint256"
        }
      ],
      "name": "getImageData",
      "outputs": [
        {
          "internalType": "string",
          "name": "data",
          "type": "string"
        }
      ],
      "stateMutability": "view",
      "type": "function"
    },
    {
      "inputs": [
        {
          "internalType": "uint256",
          "name": "metaId",
          "type": "uint256"
        },
        {
          "internalType": "uint8",
          "name": "index",
          "type": "uint8"
        }
      ],
      "name": "getN",
      "outputs": [
        {
          "internalType": "uint256",
          "name": "n",
          "type": "uint256"
        },
        {
          "internalType": "uint256",
          "name": "max",
          "type": "uint256"
        }
      ],
      "stateMutability": "view",
      "type": "function"
    },
    {
      "inputs": [
        {
          "internalType": "uint256",
          "name": "n",
          "type": "uint256"
        },
        {
          "internalType": "uint256",
          "name": "max",
          "type": "uint256"
        }
      ],
      "name": "getPart",
      "outputs": [
        {
          "internalType": "uint8",
          "name": "",
          "type": "uint8"
        }
      ],
      "stateMutability": "view",
      "type": "function"
    },
    {
      "inputs": [
        {
          "internalType": "uint256",
          "name": "metaId",
          "type": "uint256"
        },
        {
          "internalType": "uint8",
          "name": "index",
          "type": "uint8"
        }
      ],
      "name": "getPartOf",
      "outputs": [
        {
          "internalType": "uint8",
          "name": "",
          "type": "uint8"
        }
      ],
      "stateMutability": "view",
      "type": "function"
    },
    {
      "inputs": [],
      "name": "rootURI",
      "outputs": [
        {
          "internalType": "string",
          "name": "",
          "type": "string"
        }
      ],
      "stateMutability": "view",
      "type": "function"
    }
  ],
  "transactionHash": "0xfa7e98baa454a493e1eabfdb0b5e1c7b0f1dd88dc84787e0b551a103e791521c",
  "args": [
    "https://ipfs.4everland.io/ipfs/bafybeic3j3425sjxjidliituvxdu5pf2rh5wi7zgduxplt75z3k6tynv7y"
  ],
  "numDeployments": 5,
  "solcInputHash": "35082733201dde81dad97281ded231f7",
  "bytecode": "0x6101c0604052600c608081815260a082905260c082905260e08290526101008290526101208290526101409190915260036101605260056101805260086101a0526200005090600190600a620000da565b506040805160c081018252602880825260208201819052918101829052606081019190915260306080820181905260a0820152620000939060039060066200017a565b50348015620000a157600080fd5b5060405162000f0e38038062000f0e833981016040819052620000c4916200022d565b6000620000d2828262000391565b50506200045d565b600283019183908215620001685791602002820160005b838211156200013457835183826101000a81548163ffffffff021916908360ff1602179055509260200192600401602081600301049283019260010302620000f1565b8015620001665782816101000a81549063ffffffff021916905560040160208160030104928301926001030262000134565b505b506200017692915062000200565b5090565b600183019183908215620001685791602002820160005b83821115620001d157835183826101000a81548160ff021916908360ff160217905550926020019260010160208160000104928301926001030262000191565b8015620001665782816101000a81549060ff0219169055600101602081600001049283019260010302620001d1565b5b8082111562000176576000815560010162000201565b634e487b7160e01b600052604160045260246000fd5b600060208083850312156200024157600080fd5b82516001600160401b03808211156200025957600080fd5b818501915085601f8301126200026e57600080fd5b81518181111562000283576200028362000217565b604051601f8201601f19908116603f01168101908382118183101715620002ae57620002ae62000217565b816040528281528886848701011115620002c757600080fd5b600093505b82841015620002eb5784840186015181850187015292850192620002cc565b600086848301015280965050505050505092915050565b600181811c908216806200031757607f821691505b6020821081036200033857634e487b7160e01b600052602260045260246000fd5b50919050565b601f8211156200038c57600081815260208120601f850160051c81016020861015620003675750805b601f850160051c820191505b81811015620003885782815560010162000373565b5050505b505050565b81516001600160401b03811115620003ad57620003ad62000217565b620003c581620003be845462000302565b846200033e565b602080601f831160018114620003fd5760008415620003e45750858301515b600019600386901b1c1916600185901b17855562000388565b600085815260208120601f198616915b828110156200042e578886015182559484019460019091019084016200040d565b50858210156200044d5787850151600019600388901b60f8161c191681555b5050505050600190811b01905550565b610aa1806200046d6000396000f3fe608060405234801561001057600080fd5b50600436106100675760003560e01c8063529ca20711610050578063529ca207146100be578063645850fb146100de578063e091a73f146100f157600080fd5b80630471476e1461006c578063070296f714610099575b600080fd5b61007f61007a366004610607565b6100f9565b604080519283526020830191909152015b60405180910390f35b6100ac6100a736600461063d565b610216565b60405160ff9091168152602001610090565b6100d16100cc36600461065f565b6102d8565b604051610090919061069c565b6100ac6100ec366004610607565b6103d1565b6100d16103f7565b60008060068360ff161061016d576040517f08c379a000000000000000000000000000000000000000000000000000000000815260206004820152601260248201527f696e646578206f7574206f662072616e67650000000000000000000000000000604482015260640160405180910390fd5b600061017b60016006610703565b90505b8360ff168160ff1611156101cf5760038160ff16600681106101a2576101a2610716565b602081049091015460ff601f9092166101000a9004169490941c93806101c78161072c565b91505061017e565b50600160038460ff16600681106101e8576101e8610716565b602081049091015461020c9291600160ff601f9092166101000a909204161b610703565b9384169492505050565b600080805b600a8160ff1610156102c1576000606460018360ff16600a811061024157610241610716565b600891828204019190066004029054906101000a900463ffffffff1663ffffffff168661026e9190610749565b6102789190610760565b9050828610158015610292575061028f8184610782565b86105b156102a1575091506102d29050565b6102ab8184610782565b92505080806102b990610795565b91505061021b565b506102ce6001600a610703565b9150505b92915050565b606060006040518060a0016040528060678152602001610a056067913960408051808201909152600681527f3c2f7376673e0000000000000000000000000000000000000000000000000000602082015290925082915060005b60068160ff1610156103a557600061034c8260ff16610485565b9050600061036561035d88856103d1565b60ff16610485565b9050856000838360405160200161037f949392919061080a565b60405160208183030381529060405295505050808061039d90610795565b915050610332565b5082816040516020016103b99291906109bf565b60405160208183030381529060405292505050919050565b60008060006103e085856100f9565b915091506103ee8282610216565b95945050505050565b60008054610404906107d0565b80601f0160208091040260200160405190810160405280929190818152602001828054610430906107d0565b801561047d5780601f106104525761010080835404028352916020019161047d565b820191906000526020600020905b81548152906001019060200180831161046057829003601f168201915b505050505081565b6060600061049283610525565b600101905060008167ffffffffffffffff8111156104b2576104b26109ee565b6040519080825280601f01601f1916602001820160405280156104dc576020820181803683370190505b5090508181016020015b600019017f3031323334353637383961626364656600000000000000000000000000000000600a86061a8153600a85049450846104e657509392505050565b6000807a184f03e93ff9f4daa797ed6e38ed64bf6a1f010000000000000000831061056e577a184f03e93ff9f4daa797ed6e38ed64bf6a1f010000000000000000830492506040015b6d04ee2d6d415b85acef8100000000831061059a576d04ee2d6d415b85acef8100000000830492506020015b662386f26fc1000083106105b857662386f26fc10000830492506010015b6305f5e10083106105d0576305f5e100830492506008015b61271083106105e457612710830492506004015b606483106105f6576064830492506002015b600a83106102d25760010192915050565b6000806040838503121561061a57600080fd5b82359150602083013560ff8116811461063257600080fd5b809150509250929050565b6000806040838503121561065057600080fd5b50508035926020909101359150565b60006020828403121561067157600080fd5b5035919050565b60005b8381101561069357818101518382015260200161067b565b50506000910152565b60208152600082518060208401526106bb816040850160208701610678565b601f017fffffffffffffffffffffffffffffffffffffffffffffffffffffffffffffffe0169190910160400192915050565b634e487b7160e01b600052601160045260246000fd5b818103818111156102d2576102d26106ed565b634e487b7160e01b600052603260045260246000fd5b600060ff82168061073f5761073f6106ed565b6000190192915050565b80820281158282048414176102d2576102d26106ed565b60008261077d57634e487b7160e01b600052601260045260246000fd5b500490565b808201808211156102d2576102d26106ed565b600060ff821660ff81036107ab576107ab6106ed565b60010192915050565b600081516107c6818560208601610678565b9290920192915050565b600181811c908216806107e457607f821691505b60208210810361080457634e487b7160e01b600052602260045260246000fd5b50919050565b60008551602061081d8285838b01610678565b7f3c696d6167652077696474683d273130303027206865696768743d27313030309184019182527f2720687265663d27000000000000000000000000000000000000000000000000818301528654602890600090600181811c908083168061088657607f831692505b86831081036108a357634e487b7160e01b85526022600452602485fd5b8080156108b757600181146108ee5761091f565b7fffffffffffffffffffffffffffffffffffffffffffffffffffffffffffffff008516878a01528684151585028a0101955061091f565b60008e81526020902060005b858110156109155781548b82018a01529084019089016108fa565b505086848a010195505b50507f2f0000000000000000000000000000000000000000000000000000000000000084526109508185018c6107b4565b7f2f00000000000000000000000000000000000000000000000000000000000000815296506109818188018b6107b4565b96505050505050506109b2817f2e73766727202f3e0000000000000000000000000000000000000000000000009052565b6008019695505050505050565b600083516109d1818460208801610678565b8351908301906109e5818360208801610678565b01949350505050565b634e487b7160e01b600052604160045260246000fdfe3c7376672077696474683d273130303027206865696768743d2731303030272076696577426f783d2730203020313030302031303030272066696c6c3d276e6f6e652720786d6c6e733d27687474703a2f2f7777772e77332e6f72672f323030302f737667273ea264697066735822122066ae1ac7f0f045350a588d75304fa04dd756a06f581e0f1b0f5bf2ae5b90b49964736f6c63430008130033",
  "devdoc": {
    "kind": "dev",
    "methods": {},
    "version": 1
  },
  "userdoc": {
    "kind": "user",
    "methods": {},
    "version": 1
  },
  "storageLayout": {
    "storage": [
      {
        "astId": 4291,
        "contract": "contracts/core/MossyDescriptor.sol:MossyDescriptor",
        "label": "rootURI",
        "offset": 0,
        "slot": "0",
        "type": "t_string_storage"
      },
      {
        "astId": 4306,
        "contract": "contracts/core/MossyDescriptor.sol:MossyDescriptor",
        "label": "_pcts",
        "offset": 0,
        "slot": "1",
        "type": "t_array(t_uint32)10_storage"
      },
      {
        "astId": 4317,
        "contract": "contracts/core/MossyDescriptor.sol:MossyDescriptor",
        "label": "_pctDistribs",
        "offset": 0,
        "slot": "3",
        "type": "t_array(t_uint8)6_storage"
      }
    ],
    "types": {
      "t_array(t_uint32)10_storage": {
        "base": "t_uint32",
        "encoding": "inplace",
        "label": "uint32[10]",
        "numberOfBytes": "64"
      },
      "t_array(t_uint8)6_storage": {
        "base": "t_uint8",
        "encoding": "inplace",
        "label": "uint8[6]",
        "numberOfBytes": "32"
      },
      "t_string_storage": {
        "encoding": "bytes",
        "label": "string",
        "numberOfBytes": "32"
      },
      "t_uint32": {
        "encoding": "inplace",
        "label": "uint32",
        "numberOfBytes": "4"
      },
      "t_uint8": {
        "encoding": "inplace",
        "label": "uint8",
        "numberOfBytes": "1"
      }
    }
  }
}