{
  "address": "0xADaB4A04b65085e304F749AdA947444483573037",
  "abi": [
    {
      "anonymous": false,
      "inputs": [
        {
          "indexed": true,
          "internalType": "address",
          "name": "owner",
          "type": "address"
        },
        {
          "indexed": true,
          "internalType": "address",
          "name": "approved",
          "type": "address"
        },
        {
          "indexed": true,
          "internalType": "uint256",
          "name": "tokenId",
          "type": "uint256"
        }
      ],
      "name": "Approval",
      "type": "event"
    },
    {
      "anonymous": false,
      "inputs": [
        {
          "indexed": true,
          "internalType": "address",
          "name": "owner",
          "type": "address"
        },
        {
          "indexed": true,
          "internalType": "address",
          "name": "operator",
          "type": "address"
        },
        {
          "indexed": false,
          "internalType": "bool",
          "name": "approved",
          "type": "bool"
        }
      ],
      "name": "ApprovalForAll",
      "type": "event"
    },
    {
      "anonymous": false,
      "inputs": [
        {
          "indexed": false,
          "internalType": "uint256",
          "name": "_fromTokenId",
          "type": "uint256"
        },
        {
          "indexed": false,
          "internalType": "uint256",
          "name": "_toTokenId",
          "type": "uint256"
        }
      ],
      "name": "BatchMetadataUpdate",
      "type": "event"
    },
    {
      "anonymous": false,
      "inputs": [
        {
          "indexed": false,
          "internalType": "uint8",
          "name": "version",
          "type": "uint8"
        }
      ],
      "name": "Initialized",
      "type": "event"
    },
    {
      "anonymous": false,
      "inputs": [
        {
          "indexed": false,
          "internalType": "uint256",
          "name": "_tokenId",
          "type": "uint256"
        }
      ],
      "name": "MetadataUpdate",
      "type": "event"
    },
    {
      "anonymous": false,
      "inputs": [
        {
          "indexed": true,
          "internalType": "address",
          "name": "previousOwner",
          "type": "address"
        },
        {
          "indexed": true,
          "internalType": "address",
          "name": "newOwner",
          "type": "address"
        }
      ],
      "name": "OwnershipTransferred",
      "type": "event"
    },
    {
      "anonymous": false,
      "inputs": [
        {
          "indexed": true,
          "internalType": "address",
          "name": "from",
          "type": "address"
        },
        {
          "indexed": true,
          "internalType": "address",
          "name": "to",
          "type": "address"
        },
        {
          "indexed": true,
          "internalType": "uint256",
          "name": "tokenId",
          "type": "uint256"
        }
      ],
      "name": "Transfer",
      "type": "event"
    },
    {
      "inputs": [],
      "name": "MAXFREE",
      "outputs": [
        {
          "internalType": "uint32",
          "name": "",
          "type": "uint32"
        }
      ],
      "stateMutability": "view",
      "type": "function"
    },
    {
      "inputs": [],
      "name": "MAXPHASETWO",
      "outputs": [
        {
          "internalType": "uint32",
          "name": "",
          "type": "uint32"
        }
      ],
      "stateMutability": "view",
      "type": "function"
    },
    {
      "inputs": [
        {
          "internalType": "address",
          "name": "to",
          "type": "address"
        },
        {
          "internalType": "uint256",
          "name": "tokenId",
          "type": "uint256"
        }
      ],
      "name": "approve",
      "outputs": [],
      "stateMutability": "nonpayable",
      "type": "function"
    },
    {
      "inputs": [
        {
          "internalType": "address",
          "name": "owner",
          "type": "address"
        }
      ],
      "name": "balanceOf",
      "outputs": [
        {
          "internalType": "uint256",
          "name": "",
          "type": "uint256"
        }
      ],
      "stateMutability": "view",
      "type": "function"
    },
    {
      "inputs": [
        {
          "internalType": "address",
          "name": "to",
          "type": "address"
        },
        {
          "internalType": "uint32",
          "name": "amount",
          "type": "uint32"
        }
      ],
      "name": "devMint",
      "outputs": [],
      "stateMutability": "nonpayable",
      "type": "function"
    },
    {
      "inputs": [],
      "name": "devReserve",
      "outputs": [
        {
          "internalType": "uint32",
          "name": "",
          "type": "uint32"
        }
      ],
      "stateMutability": "view",
      "type": "function"
    },
    {
      "inputs": [],
      "name": "freeEnd",
      "outputs": [
        {
          "internalType": "uint64",
          "name": "",
          "type": "uint64"
        }
      ],
      "stateMutability": "view",
      "type": "function"
    },
    {
      "inputs": [],
      "name": "freeSold",
      "outputs": [
        {
          "internalType": "uint32",
          "name": "",
          "type": "uint32"
        }
      ],
      "stateMutability": "view",
      "type": "function"
    },
    {
      "inputs": [],
      "name": "freeStart",
      "outputs": [
        {
          "internalType": "uint64",
          "name": "",
          "type": "uint64"
        }
      ],
      "stateMutability": "view",
      "type": "function"
    },
    {
      "inputs": [],
      "name": "fundingPhase",
      "outputs": [
        {
          "internalType": "uint8",
          "name": "",
          "type": "uint8"
        }
      ],
      "stateMutability": "view",
      "type": "function"
    },
    {
      "inputs": [
        {
          "internalType": "uint256",
          "name": "tokenId",
          "type": "uint256"
        }
      ],
      "name": "getApproved",
      "outputs": [
        {
          "internalType": "address",
          "name": "",
          "type": "address"
        }
      ],
      "stateMutability": "view",
      "type": "function"
    },
    {
      "inputs": [],
      "name": "getPhase",
      "outputs": [
        {
          "internalType": "enum Mossy.Phase",
          "name": "",
          "type": "uint8"
        }
      ],
      "stateMutability": "view",
      "type": "function"
    },
    {
      "inputs": [
        {
          "internalType": "address",
          "name": "admin",
          "type": "address"
        },
        {
          "internalType": "uint64",
          "name": "_freeStart",
          "type": "uint64"
        },
        {
          "internalType": "uint64",
          "name": "_freeEnd",
          "type": "uint64"
        }
      ],
      "name": "initialize",
      "outputs": [],
      "stateMutability": "nonpayable",
      "type": "function"
    },
    {
      "inputs": [
        {
          "internalType": "address",
          "name": "owner",
          "type": "address"
        },
        {
          "internalType": "address",
          "name": "operator",
          "type": "address"
        }
      ],
      "name": "isApprovedForAll",
      "outputs": [
        {
          "internalType": "bool",
          "name": "",
          "type": "bool"
        }
      ],
      "stateMutability": "view",
      "type": "function"
    },
    {
      "inputs": [],
      "name": "maxPhaseOne",
      "outputs": [
        {
          "internalType": "uint32",
          "name": "",
          "type": "uint32"
        }
      ],
      "stateMutability": "view",
      "type": "function"
    },
    {
      "inputs": [],
      "name": "mint",
      "outputs": [],
      "stateMutability": "payable",
      "type": "function"
    },
    {
      "inputs": [],
      "name": "name",
      "outputs": [
        {
          "internalType": "string",
          "name": "",
          "type": "string"
        }
      ],
      "stateMutability": "view",
      "type": "function"
    },
    {
      "inputs": [
        {
          "internalType": "contract IMossyDescriptor",
          "name": "_descriptor",
          "type": "address"
        }
      ],
      "name": "open",
      "outputs": [],
      "stateMutability": "nonpayable",
      "type": "function"
    },
    {
      "inputs": [],
      "name": "owner",
      "outputs": [
        {
          "internalType": "address",
          "name": "",
          "type": "address"
        }
      ],
      "stateMutability": "view",
      "type": "function"
    },
    {
      "inputs": [
        {
          "internalType": "uint256",
          "name": "tokenId",
          "type": "uint256"
        }
      ],
      "name": "ownerOf",
      "outputs": [
        {
          "internalType": "address",
          "name": "",
          "type": "address"
        }
      ],
      "stateMutability": "view",
      "type": "function"
    },
    {
      "inputs": [],
      "name": "phaseOneFee",
      "outputs": [
        {
          "internalType": "uint64",
          "name": "",
          "type": "uint64"
        }
      ],
      "stateMutability": "view",
      "type": "function"
    },
    {
      "inputs": [],
      "name": "phaseOneSold",
      "outputs": [
        {
          "internalType": "uint32",
          "name": "",
          "type": "uint32"
        }
      ],
      "stateMutability": "view",
      "type": "function"
    },
    {
      "inputs": [],
      "name": "phaseTwoFee",
      "outputs": [
        {
          "internalType": "uint64",
          "name": "",
          "type": "uint64"
        }
      ],
      "stateMutability": "view",
      "type": "function"
    },
    {
      "inputs": [],
      "name": "phaseTwoSold",
      "outputs": [
        {
          "internalType": "uint32",
          "name": "",
          "type": "uint32"
        }
      ],
      "stateMutability": "view",
      "type": "function"
    },
    {
      "inputs": [],
      "name": "renounceOwnership",
      "outputs": [],
      "stateMutability": "nonpayable",
      "type": "function"
    },
    {
      "inputs": [
        {
          "internalType": "address",
          "name": "from",
          "type": "address"
        },
        {
          "internalType": "address",
          "name": "to",
          "type": "address"
        },
        {
          "internalType": "uint256",
          "name": "tokenId",
          "type": "uint256"
        }
      ],
      "name": "safeTransferFrom",
      "outputs": [],
      "stateMutability": "nonpayable",
      "type": "function"
    },
    {
      "inputs": [
        {
          "internalType": "address",
          "name": "from",
          "type": "address"
        },
        {
          "internalType": "address",
          "name": "to",
          "type": "address"
        },
        {
          "internalType": "uint256",
          "name": "tokenId",
          "type": "uint256"
        },
        {
          "internalType": "bytes",
          "name": "data",
          "type": "bytes"
        }
      ],
      "name": "safeTransferFrom",
      "outputs": [],
      "stateMutability": "nonpayable",
      "type": "function"
    },
    {
      "inputs": [
        {
          "internalType": "address",
          "name": "",
          "type": "address"
        }
      ],
      "name": "sales",
      "outputs": [
        {
          "internalType": "uint32",
          "name": "",
          "type": "uint32"
        }
      ],
      "stateMutability": "view",
      "type": "function"
    },
    {
      "inputs": [
        {
          "internalType": "address",
          "name": "operator",
          "type": "address"
        },
        {
          "internalType": "bool",
          "name": "approved",
          "type": "bool"
        }
      ],
      "name": "setApprovalForAll",
      "outputs": [],
      "stateMutability": "nonpayable",
      "type": "function"
    },
    {
      "inputs": [
        {
          "internalType": "bytes4",
          "name": "interfaceId",
          "type": "bytes4"
        }
      ],
      "name": "supportsInterface",
      "outputs": [
        {
          "internalType": "bool",
          "name": "",
          "type": "bool"
        }
      ],
      "stateMutability": "view",
      "type": "function"
    },
    {
      "inputs": [],
      "name": "symbol",
      "outputs": [
        {
          "internalType": "string",
          "name": "",
          "type": "string"
        }
      ],
      "stateMutability": "view",
      "type": "function"
    },
    {
      "inputs": [
        {
          "internalType": "uint256",
          "name": "",
          "type": "uint256"
        }
      ],
      "name": "token2Metas",
      "outputs": [
        {
          "internalType": "uint256",
          "name": "",
          "type": "uint256"
        }
      ],
      "stateMutability": "view",
      "type": "function"
    },
    {
      "inputs": [
        {
          "internalType": "uint256",
          "name": "index",
          "type": "uint256"
        }
      ],
      "name": "tokenByIndex",
      "outputs": [
        {
          "internalType": "uint256",
          "name": "",
          "type": "uint256"
        }
      ],
      "stateMutability": "view",
      "type": "function"
    },
    {
      "inputs": [
        {
          "internalType": "address",
          "name": "owner",
          "type": "address"
        },
        {
          "internalType": "uint256",
          "name": "index",
          "type": "uint256"
        }
      ],
      "name": "tokenOfOwnerByIndex",
      "outputs": [
        {
          "internalType": "uint256",
          "name": "",
          "type": "uint256"
        }
      ],
      "stateMutability": "view",
      "type": "function"
    },
    {
      "inputs": [
        {
          "internalType": "uint256",
          "name": "id",
          "type": "uint256"
        }
      ],
      "name": "tokenURI",
      "outputs": [
        {
          "internalType": "string",
          "name": "",
          "type": "string"
        }
      ],
      "stateMutability": "view",
      "type": "function"
    },
    {
      "inputs": [],
      "name": "totalSupply",
      "outputs": [
        {
          "internalType": "uint256",
          "name": "",
          "type": "uint256"
        }
      ],
      "stateMutability": "view",
      "type": "function"
    },
    {
      "inputs": [
        {
          "internalType": "address",
          "name": "from",
          "type": "address"
        },
        {
          "internalType": "address",
          "name": "to",
          "type": "address"
        },
        {
          "internalType": "uint256",
          "name": "tokenId",
          "type": "uint256"
        }
      ],
      "name": "transferFrom",
      "outputs": [],
      "stateMutability": "nonpayable",
      "type": "function"
    },
    {
      "inputs": [
        {
          "internalType": "address",
          "name": "newOwner",
          "type": "address"
        }
      ],
      "name": "transferOwnership",
      "outputs": [],
      "stateMutability": "nonpayable",
      "type": "function"
    },
    {
      "inputs": [
        {
          "internalType": "uint64",
          "name": "_freeStart",
          "type": "uint64"
        },
        {
          "internalType": "uint64",
          "name": "_freeEnd",
          "type": "uint64"
        }
      ],
      "name": "updateTime",
      "outputs": [],
      "stateMutability": "nonpayable",
      "type": "function"
    },
    {
      "inputs": [
        {
          "internalType": "address[]",
          "name": "list",
          "type": "address[]"
        },
        {
          "internalType": "bool",
          "name": "enabled",
          "type": "bool"
        }
      ],
      "name": "updateWL",
      "outputs": [],
      "stateMutability": "nonpayable",
      "type": "function"
    },
    {
      "inputs": [
        {
          "internalType": "contract IERC20",
          "name": "coin",
          "type": "address"
        },
        {
          "internalType": "address",
          "name": "to",
          "type": "address"
        },
        {
          "internalType": "uint256",
          "name": "value",
          "type": "uint256"
        }
      ],
      "name": "withdraw",
      "outputs": [],
      "stateMutability": "nonpayable",
      "type": "function"
    },
    {
      "stateMutability": "payable",
      "type": "receive"
    }
  ],
  "transactionHash": "0xe66c304e662a4df8b6944522cf89a2e978a77d2f07132b38bd10d999c85dd7b2",
  "args": [],
  "numDeployments": 2,
  "solcInputHash": "4acf9744443a661c9ba0b4861bd6ad0a",
  "bytecode": "0x608060405261012d805463ffffffff60801b1916607d60821b17905534801561002757600080fd5b50613616806100376000396000f3fe6080604052600436106102ca5760003560e01c806375aa830d11610179578063af406fba116100d6578063c87b56dd1161008a578063eced028011610064578063eced028014610813578063f2fde38b14610835578063fcd2a4271461085557600080fd5b8063c87b56dd1461078a578063d9caed12146107aa578063e985e9c5146107ca57600080fd5b8063b95460f8116100bb578063b95460f814610711578063bce5d7ec14610731578063c6b9f06a1461075657600080fd5b8063af406fba146106cf578063b88d4fde146106f157600080fd5b806395d89b411161012d578063a22cb46511610112578063a22cb4651461065c578063a37d6e0f1461067c578063a744a7a6146106a157600080fd5b806395d89b4114610627578063989a83661461063c57600080fd5b80638431f2ab1161015e5780638431f2ab146105c457806388ed2c7d146105e95780638da5cb5b1461060957600080fd5b806375aa830d1461058e57806376e8fd94146105a957600080fd5b80633d3e37631161022757806350769351116101db5780636e255851116101c05780636e2558511461054457806370a0823114610559578063715018a61461057957600080fd5b806350769351146105065780636352211e1461052457600080fd5b806347526fe21161020c57806347526fe21461047557806347ec08501461049f5780634f6ccce7146104e657600080fd5b80633d3e37631461043557806342842e0e1461045557600080fd5b806317a5aced1161027e57806320e3b5ac1161026357806320e3b5ac146103ce57806323b872dd146103f55780632f745c591461041557600080fd5b806317a5aced1461038f57806318160ddd146103af57600080fd5b8063081812fc116102af578063081812fc1461032d578063095ea7b3146103655780631249c58b1461038757600080fd5b806301ffc9a7146102d657806306fdde031461030b57600080fd5b366102d157005b600080fd5b3480156102e257600080fd5b506102f66102f1366004612d43565b610887565b60405190151581526020015b60405180910390f35b34801561031757600080fd5b506103206108e3565b6040516103029190612db7565b34801561033957600080fd5b5061034d610348366004612dca565b610975565b6040516001600160a01b039091168152602001610302565b34801561037157600080fd5b50610385610380366004612df8565b61099c565b005b610385610ad2565b34801561039b57600080fd5b506103856103aa366004612e24565b610bfb565b3480156103bb57600080fd5b506099545b604051908152602001610302565b3480156103da57600080fd5b506103e3610cee565b60405160ff9091168152602001610302565b34801561040157600080fd5b50610385610410366004612e66565b610d5d565b34801561042157600080fd5b506103c0610430366004612df8565b610de4565b34801561044157600080fd5b50610385610450366004612ec4565b610e8c565b34801561046157600080fd5b50610385610470366004612e66565b610ee4565b34801561048157600080fd5b5061048a600a81565b60405163ffffffff9091168152602001610302565b3480156104ab57600080fd5b5061012d546104cd9068010000000000000000900467ffffffffffffffff1681565b60405167ffffffffffffffff9091168152602001610302565b3480156104f257600080fd5b506103c0610501366004612dca565b610eff565b34801561051257600080fd5b5061012e5461048a9063ffffffff1681565b34801561053057600080fd5b5061034d61053f366004612dca565b610fa3565b34801561055057600080fd5b5061048a600581565b34801561056557600080fd5b506103c0610574366004612ef7565b611008565b34801561058557600080fd5b506103856110a2565b34801561059a57600080fd5b506104cd662386f26fc1000081565b3480156105b557600080fd5b506104cd6611c37937e0800081565b3480156105d057600080fd5b5061012d5461048a90600160a01b900463ffffffff1681565b3480156105f557600080fd5b50610385610604366004612f74565b6110b4565b34801561061557600080fd5b5060c9546001600160a01b031661034d565b34801561063357600080fd5b50610320611124565b34801561064857600080fd5b50610385610657366004613038565b611133565b34801561066857600080fd5b5061038561067736600461307d565b611381565b34801561068857600080fd5b5061012d5461048a90600160c01b900463ffffffff1681565b3480156106ad57600080fd5b506103c06106bc366004612dca565b6101306020526000908152604090205481565b3480156106db57600080fd5b5061012d546104cd9067ffffffffffffffff1681565b3480156106fd57600080fd5b5061038561070c3660046130d3565b611390565b34801561071d57600080fd5b5061038561072c366004612ef7565b611418565b34801561073d57600080fd5b5061012d5461048a90600160e01b900463ffffffff1681565b34801561076257600080fd5b5061048a610771366004612ef7565b6101326020526000908152604090205463ffffffff1681565b34801561079657600080fd5b506103206107a5366004612dca565b6114f1565b3480156107b657600080fd5b506103856107c5366004612e66565b61163d565b3480156107d657600080fd5b506102f66107e5366004613182565b6001600160a01b039182166000908152606a6020908152604080832093909416825291909152205460ff1690565b34801561081f57600080fd5b5061082861171f565b60405161030291906131c6565b34801561084157600080fd5b50610385610850366004612ef7565b6117c0565b34801561086157600080fd5b5061012d5461048a90700100000000000000000000000000000000900463ffffffff1681565b60007fffffffff0000000000000000000000000000000000000000000000000000000082167f780e9d630000000000000000000000000000000000000000000000000000000014806108dd57506108dd82611850565b92915050565b6060606580546108f2906131ee565b80601f016020809104026020016040519081016040528092919081815260200182805461091e906131ee565b801561096b5780601f106109405761010080835404028352916020019161096b565b820191906000526020600020905b81548152906001019060200180831161094e57829003601f168201915b5050505050905090565b600061098082611933565b506000908152606960205260409020546001600160a01b031690565b60006109a782610fa3565b9050806001600160a01b0316836001600160a01b031603610a355760405162461bcd60e51b815260206004820152602160248201527f4552433732313a20617070726f76616c20746f2063757272656e74206f776e6560448201527f720000000000000000000000000000000000000000000000000000000000000060648201526084015b60405180910390fd5b336001600160a01b0382161480610a515750610a5181336107e5565b610ac35760405162461bcd60e51b815260206004820152603d60248201527f4552433732313a20617070726f76652063616c6c6572206973206e6f7420746f60448201527f6b656e206f776e6572206f7220617070726f76656420666f7220616c6c0000006064820152608401610a2c565b610acd8383611997565b505050565b610ada611a12565b6000610ae461171f565b90506000816003811115610afa57610afa6131b0565b03610b475760405162461bcd60e51b815260206004820152601860248201527f66726565206d696e74696e67206973206e6f74206f70656e00000000000000006044820152606401610a2c565b6003816003811115610b5b57610b5b6131b0565b03610ba85760405162461bcd60e51b815260206004820152601360248201527f616c6c20746f6b656e7320736f6c64206f7574000000000000000000000000006044820152606401610a2c565b336001826003811115610bbd57610bbd6131b0565b03610bcb57610bcb81611a6b565b6002826003811115610bdf57610bdf6131b0565b03610bed57610bed81611bd1565b5050610bf9600160fb55565b565b610c03611f5f565b61012d5463ffffffff808316700100000000000000000000000000000000909204161015610c735760405162461bcd60e51b815260206004820152601960248201527f4d6f7373793a204e6f207265736572766520666f7220646576000000000000006044820152606401610a2c565b60005b8163ffffffff16811015610c9f57610c8d83611fb9565b80610c978161323e565b915050610c76565b5061012d54610cc9908290700100000000000000000000000000000000900463ffffffff16613258565b61012d60106101000a81548163ffffffff021916908363ffffffff1602179055505050565b60006002610cfa61171f565b6003811115610d0b57610d0b6131b0565b14610d165750600090565b61012d5463ffffffff600160a01b82048116600160e01b909204161015610d3d5750600190565b61012e54600563ffffffff9091161015610d575750600290565b50600390565b610d673382612092565b610dd95760405162461bcd60e51b815260206004820152602d60248201527f4552433732313a2063616c6c6572206973206e6f7420746f6b656e206f776e6560448201527f72206f7220617070726f766564000000000000000000000000000000000000006064820152608401610a2c565b610acd838383612111565b6000610def83611008565b8210610e635760405162461bcd60e51b815260206004820152602b60248201527f455243373231456e756d657261626c653a206f776e657220696e646578206f7560448201527f74206f6620626f756e64730000000000000000000000000000000000000000006064820152608401610a2c565b506001600160a01b03919091166000908152609760209081526040808320938352929052205490565b610e94611f5f565b61012d805467ffffffffffffffff92831668010000000000000000027fffffffffffffffffffffffffffffffff000000000000000000000000000000009091169290931691909117919091179055565b610acd83838360405180602001604052806000815250611390565b6000610f0a60995490565b8210610f7e5760405162461bcd60e51b815260206004820152602c60248201527f455243373231456e756d657261626c653a20676c6f62616c20696e646578206f60448201527f7574206f6620626f756e647300000000000000000000000000000000000000006064820152608401610a2c565b60998281548110610f9157610f9161327c565b90600052602060002001549050919050565b6000818152606760205260408120546001600160a01b0316806108dd5760405162461bcd60e51b815260206004820152601860248201527f4552433732313a20696e76616c696420746f6b656e20494400000000000000006044820152606401610a2c565b60006001600160a01b0382166110865760405162461bcd60e51b815260206004820152602960248201527f4552433732313a2061646472657373207a65726f206973206e6f74206120766160448201527f6c6964206f776e657200000000000000000000000000000000000000000000006064820152608401610a2c565b506001600160a01b031660009081526068602052604090205490565b6110aa611f5f565b610bf96000612354565b6110bc611f5f565b60005b8251811015610acd578161013160008584815181106110e0576110e061327c565b6020908102919091018101516001600160a01b03168252810191909152604001600020805460ff19169115159190911790558061111c8161323e565b9150506110bf565b6060606680546108f2906131ee565b600054610100900460ff16158080156111535750600054600160ff909116105b8061116d5750303b15801561116d575060005460ff166001145b6111df5760405162461bcd60e51b815260206004820152602e60248201527f496e697469616c697a61626c653a20636f6e747261637420697320616c72656160448201527f647920696e697469616c697a65640000000000000000000000000000000000006064820152608401610a2c565b6000805460ff191660011790558015611202576000805461ff0019166101001790555b428367ffffffffffffffff16101561121957600080fd5b8167ffffffffffffffff168367ffffffffffffffff161061123957600080fd5b61124284612354565b61012d80547fffffffffffffffff0000000000000000ffffffffffffffffffffffffffffffff167405000001f40000000000000000000000000000000017908190556005906112a09063ffffffff600160a01b90910416600a613292565b6112aa9190613292565b61012e805463ffffffff929092166901000000000000000000027fffffffffffffffffffffffffffffffffffffff00000000ffffffffffffffffff90921691909117905561012d805467ffffffffffffffff84811668010000000000000000027fffffffffffffffffffffffffffffffff0000000000000000000000000000000090921690861617179055801561137b576000805461ff0019169055604051600181527f7f26b83ff96e1f2b6a682f133852f6798a09c465da95921460cefb38474024989060200160405180910390a15b50505050565b61138c3383836123b3565b5050565b61139a3383612092565b61140c5760405162461bcd60e51b815260206004820152602d60248201527f4552433732313a2063616c6c6572206973206e6f7420746f6b656e206f776e6560448201527f72206f7220617070726f766564000000000000000000000000000000000000006064820152608401610a2c565b61137b84848484612481565b611420611f5f565b61012f546001600160a01b03161561147a5760405162461bcd60e51b815260206004820152601060248201527f646573636970746f7220657869737473000000000000000000000000000000006044820152606401610a2c565b61012f805473ffffffffffffffffffffffffffffffffffffffff19166001600160a01b03831617905561012e54604080516000815264010000000090920463ffffffff1660208301527f6bd5c950a8d8df17f772f5af37cb3655737899cbf903264b9795592da439661c910160405180910390a150565b61012f546060906001600160a01b03166115245760405180608001604052806042815260200161359f6042913992915050565b600061152f8361250a565b60405160200161153f91906132af565b60408051808303601f1901815282825261012f546000878152610130602052928320547f529ca207000000000000000000000000000000000000000000000000000000008552600485015290935090916001600160a01b039091169063529ca20790602401600060405180830381865afa1580156115c1573d6000803e3d6000fd5b505050506040513d6000823e601f3d908101601f191682016040526115e991908101906132f4565b905060008283836040516020016116029392919061336b565b6040516020818303038152906040529050806040516020016116249190613455565b6040516020818303038152906040529350505050919050565b611645611f5f565b6001600160a01b03831661169357610acd82826040518060400160405280601b81526020017f7769746864726177206e617469766520636f696e206661696c656400000000008152506125aa565b6040517fa9059cbb0000000000000000000000000000000000000000000000000000000081526001600160a01b0383811660048301526024820183905284169063a9059cbb906044016020604051808303816000875af11580156116fb573d6000803e3d6000fd5b505050506040513d601f19601f8201168201806040525081019061137b919061349a565b61012d5460009067ffffffffffffffff1642101561173d5750600090565b61012d5468010000000000000000900467ffffffffffffffff164210156117645750600190565b61012e5461012d5463ffffffff6901000000000000000000830481169281169161179f91600160e01b8204811691600160c01b900416613292565b6117a99190613292565b63ffffffff16036117ba5750600390565b50600290565b6117c8611f5f565b6001600160a01b0381166118445760405162461bcd60e51b815260206004820152602660248201527f4f776e61626c653a206e6577206f776e657220697320746865207a65726f206160448201527f64647265737300000000000000000000000000000000000000000000000000006064820152608401610a2c565b61184d81612354565b50565b60007fffffffff0000000000000000000000000000000000000000000000000000000082167f80ac58cd0000000000000000000000000000000000000000000000000000000014806118e357507fffffffff0000000000000000000000000000000000000000000000000000000082167f5b5e139f00000000000000000000000000000000000000000000000000000000145b806108dd57507f01ffc9a7000000000000000000000000000000000000000000000000000000007fffffffff000000000000000000000000000000000000000000000000000000008316146108dd565b6000818152606760205260409020546001600160a01b031661184d5760405162461bcd60e51b815260206004820152601860248201527f4552433732313a20696e76616c696420746f6b656e20494400000000000000006044820152606401610a2c565b6000818152606960205260409020805473ffffffffffffffffffffffffffffffffffffffff19166001600160a01b03841690811790915581906119d982610fa3565b6001600160a01b03167f8c5be1e5ebec7d5bd14f71427d1e84f3dd0314c0f7b2291e5b200ac8c7c3b92560405160405180910390a45050565b600260fb5403611a645760405162461bcd60e51b815260206004820152601f60248201527f5265656e7472616e637947756172643a207265656e7472616e742063616c6c006044820152606401610a2c565b600260fb55565b611a7481611008565b15611ac15760405162461bcd60e51b815260206004820152601b60248201527f6f6e652063616e206f6e6c7920686f6c64206f6e6520746f6b656e00000000006044820152606401610a2c565b6001600160a01b0381166000908152610131602052604090205460ff16611b2a5760405162461bcd60e51b815260206004820152601b60248201527f63616c6c6572206973206e6f7420696e207768697465206c69737400000000006044820152606401610a2c565b61012d54600a600160c01b90910463ffffffff1610611b8b5760405162461bcd60e51b815260206004820152601e60248201527f66726565206d696e74696e6720686173206265656e20736f6c64206f757400006044820152606401610a2c565b61012d8054600160c01b900463ffffffff16906018611ba9836134b7565b91906101000a81548163ffffffff021916908363ffffffff1602179055505061184d81611fb9565b6001600160a01b03811660009081526101326020526040902054600563ffffffff90911610611c425760405162461bcd60e51b815260206004820152601960248201527f6d696e74696e67206578636565647320746865206c696d6974000000000000006044820152606401610a2c565b61012e5468010000000000000000900460ff16611ce05761012e80547fffffffffffffffffffffffffffffffffffffffffffffff00ffffffffffffffff166801000000000000000017905561012d5463ffffffff600160c01b8204811691611cb491600a91600160a01b900416613292565b611cbe9190613258565b61012d60146101000a81548163ffffffff021916908363ffffffff1602179055505b61012d5463ffffffff600160a01b82048116600160e01b909204161015611e02576611c37937e08000341015611d7e5760405162461bcd60e51b815260206004820152602760248201527f696e73756666696369656e742066756e647320746f206d696e7420617420706860448201527f617365206f6e65000000000000000000000000000000000000000000000000006064820152608401610a2c565b6611c37937e08000341115611dc057611dc081611da26611c37937e08000346134da565b60405180606001604052806021815260200161355d602191396125aa565b61012d8054600160e01b900463ffffffff1690601c611dde836134b7565b91906101000a81548163ffffffff021916908363ffffffff16021790555050611f34565b61012e54600563ffffffff9091161015611eec57662386f26fc10000341015611e935760405162461bcd60e51b815260206004820152602760248201527f696e73756666696369656e742066756e647320746f206d696e7420617420706860448201527f6173652074776f000000000000000000000000000000000000000000000000006064820152608401610a2c565b662386f26fc10000341115611ed557611ed581611eb7662386f26fc10000346134da565b60405180606001604052806021815260200161357e602191396125aa565b61012e805463ffffffff16906000611dde836134b7565b60405162461bcd60e51b815260206004820152601360248201527f616c6c20746f6b656e7320736f6c64206f7574000000000000000000000000006044820152606401610a2c565b6001600160a01b038116600090815261013260205260408120805463ffffffff1691611ba9836134b7565b60c9546001600160a01b03163314610bf95760405162461bcd60e51b815260206004820181905260248201527f4f776e61626c653a2063616c6c6572206973206e6f7420746865206f776e65726044820152606401610a2c565b61012e805460408051606085901b7fffffffffffffffffffffffffffffffffffffffff0000000000000000000000001660208083019190915263ffffffff640100000000948590048116603484018190524360548086019190915285518086039091018152607490940185528351938301939093206000938452610130909252929091208190559254612050928592910416612627565b61012e8054640100000000900463ffffffff1690600461206f836134b7565b91906101000a81548163ffffffff021916908363ffffffff160217905550505050565b60008061209e83610fa3565b9050806001600160a01b0316846001600160a01b031614806120e557506001600160a01b038082166000908152606a602090815260408083209388168352929052205460ff165b806121095750836001600160a01b03166120fe84610975565b6001600160a01b0316145b949350505050565b826001600160a01b031661212482610fa3565b6001600160a01b0316146121a05760405162461bcd60e51b815260206004820152602560248201527f4552433732313a207472616e736665722066726f6d20696e636f72726563742060448201527f6f776e65720000000000000000000000000000000000000000000000000000006064820152608401610a2c565b6001600160a01b03821661221b5760405162461bcd60e51b8152602060048201526024808201527f4552433732313a207472616e7366657220746f20746865207a65726f2061646460448201527f72657373000000000000000000000000000000000000000000000000000000006064820152608401610a2c565b61222883838360016127cd565b826001600160a01b031661223b82610fa3565b6001600160a01b0316146122b75760405162461bcd60e51b815260206004820152602560248201527f4552433732313a207472616e736665722066726f6d20696e636f72726563742060448201527f6f776e65720000000000000000000000000000000000000000000000000000006064820152608401610a2c565b6000818152606960209081526040808320805473ffffffffffffffffffffffffffffffffffffffff199081169091556001600160a01b0387811680865260688552838620805460001901905590871680865283862080546001019055868652606790945282852080549092168417909155905184937fddf252ad1be2c89b69c2b068fc378daa952ba7f163c4a11628f55a4df523b3ef91a4505050565b60c980546001600160a01b0383811673ffffffffffffffffffffffffffffffffffffffff19831681179093556040519116919082907f8be0079c531659141344cd1fd0a4f28419497f9722a3daafe3b4186f6b6457e090600090a35050565b816001600160a01b0316836001600160a01b0316036124145760405162461bcd60e51b815260206004820152601960248201527f4552433732313a20617070726f766520746f2063616c6c6572000000000000006044820152606401610a2c565b6001600160a01b038381166000818152606a6020908152604080832094871680845294825291829020805460ff191686151590811790915591519182527f17307eab39ab6107e8899845ad3d59bd9653f200f220920489ca2b5937696c31910160405180910390a3505050565b61248c848484612111565b61249884848484612902565b61137b5760405162461bcd60e51b815260206004820152603260248201527f4552433732313a207472616e7366657220746f206e6f6e20455243373231526560448201527f63656976657220696d706c656d656e74657200000000000000000000000000006064820152608401610a2c565b6060600061251783612aa3565b600101905060008167ffffffffffffffff81111561253757612537612f14565b6040519080825280601f01601f191660200182016040528015612561576020820181803683370190505b5090508181016020015b600019017f3031323334353637383961626364656600000000000000000000000000000000600a86061a8153600a850494508461256b57509392505050565b6000836001600160a01b03168360405160006040518083038185875af1925050503d80600081146125f7576040519150601f19603f3d011682016040523d82523d6000602084013e6125fc565b606091505b505090508082906126205760405162461bcd60e51b8152600401610a2c9190612db7565b5050505050565b6001600160a01b03821661267d5760405162461bcd60e51b815260206004820181905260248201527f4552433732313a206d696e7420746f20746865207a65726f20616464726573736044820152606401610a2c565b6000818152606760205260409020546001600160a01b0316156126e25760405162461bcd60e51b815260206004820152601c60248201527f4552433732313a20746f6b656e20616c7265616479206d696e746564000000006044820152606401610a2c565b6126f06000838360016127cd565b6000818152606760205260409020546001600160a01b0316156127555760405162461bcd60e51b815260206004820152601c60248201527f4552433732313a20746f6b656e20616c7265616479206d696e746564000000006044820152606401610a2c565b6001600160a01b0382166000818152606860209081526040808320805460010190558483526067909152808220805473ffffffffffffffffffffffffffffffffffffffff19168417905551839291907fddf252ad1be2c89b69c2b068fc378daa952ba7f163c4a11628f55a4df523b3ef908290a45050565b60018111156128445760405162461bcd60e51b815260206004820152603560248201527f455243373231456e756d657261626c653a20636f6e736563757469766520747260448201527f616e7366657273206e6f7420737570706f7274656400000000000000000000006064820152608401610a2c565b816001600160a01b0385166128a05761289b81609980546000838152609a60205260408120829055600182018355919091527f72a152ddfb8e864297c917af52ea6c1c68aead0fee1a62673fcc7e0c94979d000155565b6128c3565b836001600160a01b0316856001600160a01b0316146128c3576128c38582612b85565b6001600160a01b0384166128df576128da81612c22565b612620565b846001600160a01b0316846001600160a01b031614612620576126208482612cd1565b60006001600160a01b0384163b15612a98576040517f150b7a020000000000000000000000000000000000000000000000000000000081526001600160a01b0385169063150b7a029061295f9033908990889088906004016134ed565b6020604051808303816000875af192505050801561299a575060408051601f3d908101601f1916820190925261299791810190613529565b60015b612a4d573d8080156129c8576040519150601f19603f3d011682016040523d82523d6000602084013e6129cd565b606091505b508051600003612a455760405162461bcd60e51b815260206004820152603260248201527f4552433732313a207472616e7366657220746f206e6f6e20455243373231526560448201527f63656976657220696d706c656d656e74657200000000000000000000000000006064820152608401610a2c565b805181602001fd5b7fffffffff00000000000000000000000000000000000000000000000000000000167f150b7a0200000000000000000000000000000000000000000000000000000000149050612109565b506001949350505050565b6000807a184f03e93ff9f4daa797ed6e38ed64bf6a1f0100000000000000008310612aec577a184f03e93ff9f4daa797ed6e38ed64bf6a1f010000000000000000830492506040015b6d04ee2d6d415b85acef81000000008310612b18576d04ee2d6d415b85acef8100000000830492506020015b662386f26fc100008310612b3657662386f26fc10000830492506010015b6305f5e1008310612b4e576305f5e100830492506008015b6127108310612b6257612710830492506004015b60648310612b74576064830492506002015b600a83106108dd5760010192915050565b60006001612b9284611008565b612b9c91906134da565b600083815260986020526040902054909150808214612bef576001600160a01b03841660009081526097602090815260408083208584528252808320548484528184208190558352609890915290208190555b5060009182526098602090815260408084208490556001600160a01b039094168352609781528383209183525290812055565b609954600090612c34906001906134da565b6000838152609a602052604081205460998054939450909284908110612c5c57612c5c61327c565b906000526020600020015490508060998381548110612c7d57612c7d61327c565b6000918252602080832090910192909255828152609a90915260408082208490558582528120556099805480612cb557612cb5613546565b6001900381819060005260206000200160009055905550505050565b6000612cdc83611008565b6001600160a01b039093166000908152609760209081526040808320868452825280832085905593825260989052919091209190915550565b7fffffffff000000000000000000000000000000000000000000000000000000008116811461184d57600080fd5b600060208284031215612d5557600080fd5b8135612d6081612d15565b9392505050565b60005b83811015612d82578181015183820152602001612d6a565b50506000910152565b60008151808452612da3816020860160208601612d67565b601f01601f19169290920160200192915050565b602081526000612d606020830184612d8b565b600060208284031215612ddc57600080fd5b5035919050565b6001600160a01b038116811461184d57600080fd5b60008060408385031215612e0b57600080fd5b8235612e1681612de3565b946020939093013593505050565b60008060408385031215612e3757600080fd5b8235612e4281612de3565b9150602083013563ffffffff81168114612e5b57600080fd5b809150509250929050565b600080600060608486031215612e7b57600080fd5b8335612e8681612de3565b92506020840135612e9681612de3565b929592945050506040919091013590565b803567ffffffffffffffff81168114612ebf57600080fd5b919050565b60008060408385031215612ed757600080fd5b612ee083612ea7565b9150612eee60208401612ea7565b90509250929050565b600060208284031215612f0957600080fd5b8135612d6081612de3565b634e487b7160e01b600052604160045260246000fd5b604051601f8201601f1916810167ffffffffffffffff81118282101715612f5357612f53612f14565b604052919050565b801515811461184d57600080fd5b8035612ebf81612f5b565b60008060408385031215612f8757600080fd5b823567ffffffffffffffff80821115612f9f57600080fd5b818501915085601f830112612fb357600080fd5b8135602082821115612fc757612fc7612f14565b8160051b9250612fd8818401612f2a565b8281529284018101928181019089851115612ff257600080fd5b948201945b8486101561301c578535935061300c84612de3565b8382529482019490820190612ff7565b965061302b9050878201612f69565b9450505050509250929050565b60008060006060848603121561304d57600080fd5b833561305881612de3565b925061306660208501612ea7565b915061307460408501612ea7565b90509250925092565b6000806040838503121561309057600080fd5b823561309b81612de3565b91506020830135612e5b81612f5b565b600067ffffffffffffffff8211156130c5576130c5612f14565b50601f01601f191660200190565b600080600080608085870312156130e957600080fd5b84356130f481612de3565b9350602085013561310481612de3565b925060408501359150606085013567ffffffffffffffff81111561312757600080fd5b8501601f8101871361313857600080fd5b803561314b613146826130ab565b612f2a565b81815288602083850101111561316057600080fd5b8160208401602083013760006020838301015280935050505092959194509250565b6000806040838503121561319557600080fd5b82356131a081612de3565b91506020830135612e5b81612de3565b634e487b7160e01b600052602160045260246000fd5b60208101600483106131e857634e487b7160e01b600052602160045260246000fd5b91905290565b600181811c9082168061320257607f821691505b60208210810361322257634e487b7160e01b600052602260045260246000fd5b50919050565b634e487b7160e01b600052601160045260246000fd5b6000600019820361325157613251613228565b5060010190565b63ffffffff82811682821603908082111561327557613275613228565b5092915050565b634e487b7160e01b600052603260045260246000fd5b63ffffffff81811683821601908082111561327557613275613228565b7f404d6f7373792d000000000000000000000000000000000000000000000000008152600082516132e7816007850160208701612d67565b9190910160070192915050565b60006020828403121561330657600080fd5b815167ffffffffffffffff81111561331d57600080fd5b8201601f8101841361332e57600080fd5b805161333c613146826130ab565b81815285602083850101111561335157600080fd5b613362826020830160208601612d67565b95945050505050565b7f7b226e616d65223a2200000000000000000000000000000000000000000000008152600084516133a3816009850160208901612d67565b7f222c226465736372697074696f6e223a2200000000000000000000000000000060099184019182015284516133e081601a840160208901612d67565b7f222c22696d6167655f64617461223a2200000000000000000000000000000000601a9290910191820152835161341e81602a840160208801612d67565b7f227d000000000000000000000000000000000000000000000000000000000000602a9290910191820152602c0195945050505050565b7f646174613a6170706c69636174696f6e2f6a736f6e3b757466382c000000000081526000825161348d81601b850160208701612d67565b91909101601b0192915050565b6000602082840312156134ac57600080fd5b8151612d6081612f5b565b600063ffffffff8083168181036134d0576134d0613228565b6001019392505050565b818103818111156108dd576108dd613228565b60006001600160a01b0380871683528086166020840152508360408301526080606083015261351f6080830184612d8b565b9695505050505050565b60006020828403121561353b57600080fd5b8151612d6081612d15565b634e487b7160e01b600052603160045260246000fdfe7472616e73666572206261636b206661696c6564206174207068617365206f6e657472616e73666572206261636b206661696c65642061742070686173652074776f697066733a2f2f6261666b7265696633757a77646e3532746173673767626235697a73783670333271626d357a71687477376e3376346d6868656f6a697569697171a2646970667358221220727a8efa63845446a7787185aadc2e11bf0a02a9c3fcd369299e3169e1b897ba64736f6c63430008130033",
  "devdoc": {
    "events": {
      "Approval(address,address,uint256)": {
        "details": "Emitted when `owner` enables `approved` to manage the `tokenId` token."
      },
      "ApprovalForAll(address,address,bool)": {
        "details": "Emitted when `owner` enables or disables (`approved`) `operator` to manage all of its assets."
      },
      "BatchMetadataUpdate(uint256,uint256)": {
        "details": "This event emits when the metadata of a range of tokens is changed. So that the third-party platforms such as NFT market could timely update the images and related attributes of the NFTs."
      },
      "Initialized(uint8)": {
        "details": "Triggered when the contract has been initialized or reinitialized."
      },
      "MetadataUpdate(uint256)": {
        "details": "This event emits when the metadata of a token is changed. So that the third-party platforms such as NFT market could timely update the images and related attributes of the NFT."
      },
      "Transfer(address,address,uint256)": {
        "details": "Emitted when `tokenId` token is transferred from `from` to `to`."
      }
    },
    "kind": "dev",
    "methods": {
      "approve(address,uint256)": {
        "details": "See {IERC721-approve}."
      },
      "balanceOf(address)": {
        "details": "See {IERC721-balanceOf}."
      },
      "getApproved(uint256)": {
        "details": "See {IERC721-getApproved}."
      },
      "isApprovedForAll(address,address)": {
        "details": "See {IERC721-isApprovedForAll}."
      },
      "name()": {
        "details": "See {IERC721Metadata-name}."
      },
      "owner()": {
        "details": "Returns the address of the current owner."
      },
      "ownerOf(uint256)": {
        "details": "See {IERC721-ownerOf}."
      },
      "renounceOwnership()": {
        "details": "Leaves the contract without owner. It will not be possible to call `onlyOwner` functions. Can only be called by the current owner. NOTE: Renouncing ownership will leave the contract without an owner, thereby disabling any functionality that is only available to the owner."
      },
      "safeTransferFrom(address,address,uint256)": {
        "details": "See {IERC721-safeTransferFrom}."
      },
      "safeTransferFrom(address,address,uint256,bytes)": {
        "details": "See {IERC721-safeTransferFrom}."
      },
      "setApprovalForAll(address,bool)": {
        "details": "See {IERC721-setApprovalForAll}."
      },
      "supportsInterface(bytes4)": {
        "details": "See {IERC165-supportsInterface}."
      },
      "symbol()": {
        "details": "See {IERC721Metadata-symbol}."
      },
      "tokenByIndex(uint256)": {
        "details": "See {IERC721Enumerable-tokenByIndex}."
      },
      "tokenOfOwnerByIndex(address,uint256)": {
        "details": "See {IERC721Enumerable-tokenOfOwnerByIndex}."
      },
      "totalSupply()": {
        "details": "See {IERC721Enumerable-totalSupply}."
      },
      "transferFrom(address,address,uint256)": {
        "details": "See {IERC721-transferFrom}."
      },
      "transferOwnership(address)": {
        "details": "Transfers ownership of the contract to a new account (`newOwner`). Can only be called by the current owner."
      }
    },
    "version": 1
  },
  "userdoc": {
    "kind": "user",
    "methods": {},
    "version": 1
  },
  "storageLayout": {
    "storage": [
      {
        "astId": 138,
        "contract": "contracts/core/Mossy.sol:Mossy",
        "label": "_initialized",
        "offset": 0,
        "slot": "0",
        "type": "t_uint8"
      },
      {
        "astId": 141,
        "contract": "contracts/core/Mossy.sol:Mossy",
        "label": "_initializing",
        "offset": 1,
        "slot": "0",
        "type": "t_bool"
      },
      {
        "astId": 2273,
        "contract": "contracts/core/Mossy.sol:Mossy",
        "label": "__gap",
        "offset": 0,
        "slot": "1",
        "type": "t_array(t_uint256)50_storage"
      },
      {
        "astId": 2546,
        "contract": "contracts/core/Mossy.sol:Mossy",
        "label": "__gap",
        "offset": 0,
        "slot": "51",
        "type": "t_array(t_uint256)50_storage"
      },
      {
        "astId": 413,
        "contract": "contracts/core/Mossy.sol:Mossy",
        "label": "_name",
        "offset": 0,
        "slot": "101",
        "type": "t_string_storage"
      },
      {
        "astId": 415,
        "contract": "contracts/core/Mossy.sol:Mossy",
        "label": "_symbol",
        "offset": 0,
        "slot": "102",
        "type": "t_string_storage"
      },
      {
        "astId": 419,
        "contract": "contracts/core/Mossy.sol:Mossy",
        "label": "_owners",
        "offset": 0,
        "slot": "103",
        "type": "t_mapping(t_uint256,t_address)"
      },
      {
        "astId": 423,
        "contract": "contracts/core/Mossy.sol:Mossy",
        "label": "_balances",
        "offset": 0,
        "slot": "104",
        "type": "t_mapping(t_address,t_uint256)"
      },
      {
        "astId": 427,
        "contract": "contracts/core/Mossy.sol:Mossy",
        "label": "_tokenApprovals",
        "offset": 0,
        "slot": "105",
        "type": "t_mapping(t_uint256,t_address)"
      },
      {
        "astId": 433,
        "contract": "contracts/core/Mossy.sol:Mossy",
        "label": "_operatorApprovals",
        "offset": 0,
        "slot": "106",
        "type": "t_mapping(t_address,t_mapping(t_address,t_bool))"
      },
      {
        "astId": 1335,
        "contract": "contracts/core/Mossy.sol:Mossy",
        "label": "__gap",
        "offset": 0,
        "slot": "107",
        "type": "t_array(t_uint256)44_storage"
      },
      {
        "astId": 1500,
        "contract": "contracts/core/Mossy.sol:Mossy",
        "label": "_ownedTokens",
        "offset": 0,
        "slot": "151",
        "type": "t_mapping(t_address,t_mapping(t_uint256,t_uint256))"
      },
      {
        "astId": 1504,
        "contract": "contracts/core/Mossy.sol:Mossy",
        "label": "_ownedTokensIndex",
        "offset": 0,
        "slot": "152",
        "type": "t_mapping(t_uint256,t_uint256)"
      },
      {
        "astId": 1507,
        "contract": "contracts/core/Mossy.sol:Mossy",
        "label": "_allTokens",
        "offset": 0,
        "slot": "153",
        "type": "t_array(t_uint256)dyn_storage"
      },
      {
        "astId": 1511,
        "contract": "contracts/core/Mossy.sol:Mossy",
        "label": "_allTokensIndex",
        "offset": 0,
        "slot": "154",
        "type": "t_mapping(t_uint256,t_uint256)"
      },
      {
        "astId": 1843,
        "contract": "contracts/core/Mossy.sol:Mossy",
        "label": "__gap",
        "offset": 0,
        "slot": "155",
        "type": "t_array(t_uint256)46_storage"
      },
      {
        "astId": 10,
        "contract": "contracts/core/Mossy.sol:Mossy",
        "label": "_owner",
        "offset": 0,
        "slot": "201",
        "type": "t_address"
      },
      {
        "astId": 130,
        "contract": "contracts/core/Mossy.sol:Mossy",
        "label": "__gap",
        "offset": 0,
        "slot": "202",
        "type": "t_array(t_uint256)49_storage"
      },
      {
        "astId": 314,
        "contract": "contracts/core/Mossy.sol:Mossy",
        "label": "_status",
        "offset": 0,
        "slot": "251",
        "type": "t_uint256"
      },
      {
        "astId": 383,
        "contract": "contracts/core/Mossy.sol:Mossy",
        "label": "__gap",
        "offset": 0,
        "slot": "252",
        "type": "t_array(t_uint256)49_storage"
      },
      {
        "astId": 4595,
        "contract": "contracts/core/Mossy.sol:Mossy",
        "label": "freeStart",
        "offset": 0,
        "slot": "301",
        "type": "t_uint64"
      },
      {
        "astId": 4597,
        "contract": "contracts/core/Mossy.sol:Mossy",
        "label": "freeEnd",
        "offset": 8,
        "slot": "301",
        "type": "t_uint64"
      },
      {
        "astId": 4600,
        "contract": "contracts/core/Mossy.sol:Mossy",
        "label": "devReserve",
        "offset": 16,
        "slot": "301",
        "type": "t_uint32"
      },
      {
        "astId": 4605,
        "contract": "contracts/core/Mossy.sol:Mossy",
        "label": "maxPhaseOne",
        "offset": 20,
        "slot": "301",
        "type": "t_uint32"
      },
      {
        "astId": 4610,
        "contract": "contracts/core/Mossy.sol:Mossy",
        "label": "freeSold",
        "offset": 24,
        "slot": "301",
        "type": "t_uint32"
      },
      {
        "astId": 4612,
        "contract": "contracts/core/Mossy.sol:Mossy",
        "label": "phaseOneSold",
        "offset": 28,
        "slot": "301",
        "type": "t_uint32"
      },
      {
        "astId": 4614,
        "contract": "contracts/core/Mossy.sol:Mossy",
        "label": "phaseTwoSold",
        "offset": 0,
        "slot": "302",
        "type": "t_uint32"
      },
      {
        "astId": 4616,
        "contract": "contracts/core/Mossy.sol:Mossy",
        "label": "nonce",
        "offset": 4,
        "slot": "302",
        "type": "t_uint32"
      },
      {
        "astId": 4618,
        "contract": "contracts/core/Mossy.sol:Mossy",
        "label": "phaseUpdated",
        "offset": 8,
        "slot": "302",
        "type": "t_bool"
      },
      {
        "astId": 4626,
        "contract": "contracts/core/Mossy.sol:Mossy",
        "label": "totalSales",
        "offset": 9,
        "slot": "302",
        "type": "t_uint32"
      },
      {
        "astId": 4629,
        "contract": "contracts/core/Mossy.sol:Mossy",
        "label": "descriptor",
        "offset": 0,
        "slot": "303",
        "type": "t_contract(IMossyDescriptor)5330"
      },
      {
        "astId": 4636,
        "contract": "contracts/core/Mossy.sol:Mossy",
        "label": "token2Metas",
        "offset": 0,
        "slot": "304",
        "type": "t_mapping(t_uint256,t_uint256)"
      },
      {
        "astId": 4640,
        "contract": "contracts/core/Mossy.sol:Mossy",
        "label": "wl",
        "offset": 0,
        "slot": "305",
        "type": "t_mapping(t_address,t_bool)"
      },
      {
        "astId": 4644,
        "contract": "contracts/core/Mossy.sol:Mossy",
        "label": "sales",
        "offset": 0,
        "slot": "306",
        "type": "t_mapping(t_address,t_uint32)"
      }
    ],
    "types": {
      "t_address": {
        "encoding": "inplace",
        "label": "address",
        "numberOfBytes": "20"
      },
      "t_array(t_uint256)44_storage": {
        "base": "t_uint256",
        "encoding": "inplace",
        "label": "uint256[44]",
        "numberOfBytes": "1408"
      },
      "t_array(t_uint256)46_storage": {
        "base": "t_uint256",
        "encoding": "inplace",
        "label": "uint256[46]",
        "numberOfBytes": "1472"
      },
      "t_array(t_uint256)49_storage": {
        "base": "t_uint256",
        "encoding": "inplace",
        "label": "uint256[49]",
        "numberOfBytes": "1568"
      },
      "t_array(t_uint256)50_storage": {
        "base": "t_uint256",
        "encoding": "inplace",
        "label": "uint256[50]",
        "numberOfBytes": "1600"
      },
      "t_array(t_uint256)dyn_storage": {
        "base": "t_uint256",
        "encoding": "dynamic_array",
        "label": "uint256[]",
        "numberOfBytes": "32"
      },
      "t_bool": {
        "encoding": "inplace",
        "label": "bool",
        "numberOfBytes": "1"
      },
      "t_contract(IMossyDescriptor)5330": {
        "encoding": "inplace",
        "label": "contract IMossyDescriptor",
        "numberOfBytes": "20"
      },
      "t_mapping(t_address,t_bool)": {
        "encoding": "mapping",
        "key": "t_address",
        "label": "mapping(address => bool)",
        "numberOfBytes": "32",
        "value": "t_bool"
      },
      "t_mapping(t_address,t_mapping(t_address,t_bool))": {
        "encoding": "mapping",
        "key": "t_address",
        "label": "mapping(address => mapping(address => bool))",
        "numberOfBytes": "32",
        "value": "t_mapping(t_address,t_bool)"
      },
      "t_mapping(t_address,t_mapping(t_uint256,t_uint256))": {
        "encoding": "mapping",
        "key": "t_address",
        "label": "mapping(address => mapping(uint256 => uint256))",
        "numberOfBytes": "32",
        "value": "t_mapping(t_uint256,t_uint256)"
      },
      "t_mapping(t_address,t_uint256)": {
        "encoding": "mapping",
        "key": "t_address",
        "label": "mapping(address => uint256)",
        "numberOfBytes": "32",
        "value": "t_uint256"
      },
      "t_mapping(t_address,t_uint32)": {
        "encoding": "mapping",
        "key": "t_address",
        "label": "mapping(address => uint32)",
        "numberOfBytes": "32",
        "value": "t_uint32"
      },
      "t_mapping(t_uint256,t_address)": {
        "encoding": "mapping",
        "key": "t_uint256",
        "label": "mapping(uint256 => address)",
        "numberOfBytes": "32",
        "value": "t_address"
      },
      "t_mapping(t_uint256,t_uint256)": {
        "encoding": "mapping",
        "key": "t_uint256",
        "label": "mapping(uint256 => uint256)",
        "numberOfBytes": "32",
        "value": "t_uint256"
      },
      "t_string_storage": {
        "encoding": "bytes",
        "label": "string",
        "numberOfBytes": "32"
      },
      "t_uint256": {
        "encoding": "inplace",
        "label": "uint256",
        "numberOfBytes": "32"
      },
      "t_uint32": {
        "encoding": "inplace",
        "label": "uint32",
        "numberOfBytes": "4"
      },
      "t_uint64": {
        "encoding": "inplace",
        "label": "uint64",
        "numberOfBytes": "8"
      },
      "t_uint8": {
        "encoding": "inplace",
        "label": "uint8",
        "numberOfBytes": "1"
      }
    }
  }
}